{
  "_format": "hh-sol-artifact-1",
  "contractName": "IdentityRegistry",
  "sourceName": "contracts/IdentityRegistry.sol",
  "abi": [
    {
      "inputs": [
        {
          "internalType": "address",
          "name": "attester",
          "type": "address"
        }
      ],
      "stateMutability": "nonpayable",
      "type": "constructor"
    },
    {
      "inputs": [],
      "name": "EmptyKey",
      "type": "error"
    },
    {
      "inputs": [],
      "name": "NotAttester",
      "type": "error"
    },
    {
      "inputs": [],
      "name": "NotOwner",
      "type": "error"
    },
    {
      "inputs": [],
      "name": "NotRegistered",
      "type": "error"
    },
    {
      "anonymous": false,
      "inputs": [
        {
          "indexed": true,
          "internalType": "address",
          "name": "account",
          "type": "address"
        },
        {
          "indexed": false,
          "internalType": "bool",
          "name": "personhood",
          "type": "bool"
        }
      ],
      "name": "PersonhoodAttested",
      "type": "event"
    },
    {
      "anonymous": false,
      "inputs": [
        {
          "indexed": true,
          "internalType": "address",
          "name": "account",
          "type": "address"
        },
        {
          "indexed": false,
          "internalType": "string",
          "name": "profileCid",
          "type": "string"
        }
      ],
      "name": "ProfileUpdated",
      "type": "event"
    },
    {
      "anonymous": false,
      "inputs": [
        {
          "indexed": true,
          "internalType": "address",
          "name": "account",
          "type": "address"
        },
        {
          "indexed": false,
          "internalType": "bytes32",
          "name": "encryptionPubKey",
          "type": "bytes32"
        },
        {
          "indexed": false,
          "internalType": "string",
          "name": "profileCid",
          "type": "string"
        }
      ],
      "name": "Registered",
      "type": "event"
    },
    {
      "inputs": [
        {
          "internalType": "address",
          "name": "account",
          "type": "address"
        },
        {
          "internalType": "bool",
          "name": "value",
          "type": "bool"
        }
      ],
      "name": "attestPersonhood",
      "outputs": [],
      "stateMutability": "nonpayable",
      "type": "function"
    },
    {
      "inputs": [
        {
          "internalType": "address",
          "name": "account",
          "type": "address"
        }
      ],
      "name": "encryptionKeyOf",
      "outputs": [
        {
          "internalType": "bytes32",
          "name": "",
          "type": "bytes32"
        }
      ],
      "stateMutability": "view",
      "type": "function"
    },
    {
      "inputs": [
        {
          "internalType": "address",
          "name": "account",
          "type": "address"
        }
      ],
      "name": "isRegistered",
      "outputs": [
        {
          "internalType": "bool",
          "name": "",
          "type": "bool"
        }
      ],
      "stateMutability": "view",
      "type": "function"
    },
    {
      "inputs": [],
      "name": "owner",
      "outputs": [
        {
          "internalType": "address",
          "name": "",
          "type": "address"
        }
      ],
      "stateMutability": "view",
      "type": "function"
    },
    {
      "inputs": [],
      "name": "personhoodAttester",
      "outputs": [
        {
          "internalType": "address",
          "name": "",
          "type": "address"
        }
      ],
      "stateMutability": "view",
      "type": "function"
    },
    {
      "inputs": [
        {
          "internalType": "address",
          "name": "account",
          "type": "address"
        }
      ],
      "name": "profileOf",
      "outputs": [
        {
          "components": [
            {
              "internalType": "bytes32",
              "name": "encryptionPubKey",
              "type": "bytes32"
            },
            {
              "internalType": "string",
              "name": "profileCid",
              "type": "string"
            },
            {
              "internalType": "bool",
              "name": "personhood",
              "type": "bool"
            },
            {
              "internalType": "uint64",
              "name": "registeredAt",
              "type": "uint64"
            }
          ],
          "internalType": "struct IIdentityRegistry.Profile",
          "name": "",
          "type": "tuple"
        }
      ],
      "stateMutability": "view",
      "type": "function"
    },
    {
      "inputs": [
        {
          "internalType": "bytes32",
          "name": "encryptionPubKey",
          "type": "bytes32"
        },
        {
          "internalType": "string",
          "name": "profileCid",
          "type": "string"
        }
      ],
      "name": "register",
      "outputs": [],
      "stateMutability": "nonpayable",
      "type": "function"
    },
    {
      "inputs": [
        {
          "internalType": "address",
          "name": "attester",
          "type": "address"
        }
      ],
      "name": "setAttester",
      "outputs": [],
      "stateMutability": "nonpayable",
      "type": "function"
    },
    {
      "inputs": [
        {
          "internalType": "string",
          "name": "profileCid",
          "type": "string"
        }
      ],
      "name": "updateProfile",
      "outputs": [],
      "stateMutability": "nonpayable",
      "type": "function"
    }
  ],
  "bytecode": "0x6080604052348015600f57600080fd5b5060405161098a38038061098a833981016040819052602c91605e565b60028054336001600160a01b031991821617909155600180549091166001600160a01b0392909216919091179055608c565b600060208284031215606f57600080fd5b81516001600160a01b0381168114608557600080fd5b9392505050565b6108ef8061009b6000396000f3fe608060405234801561001057600080fd5b50600436106100925760003560e01c80638da5cb5b116100665780638da5cb5b1461013357806398d176fb146101465780639daf85ab14610159578063c3c5a5471461016c578063cf2d31fb146101b957600080fd5b80629299e3146100975780631a3d76fc146100ac5780632f8eb9cb146100dc57806377c8c51a146100fc575b600080fd5b6100aa6100a5366004610564565b6101cc565b005b6001546100bf906001600160a01b031681565b6040516001600160a01b0390911681526020015b60405180910390f35b6100ef6100ea3660046105c2565b610269565b6040516100d391906105e4565b61012561010a3660046105c2565b6001600160a01b031660009081526020819052604090205490565b6040519081526020016100d3565b6002546100bf906001600160a01b031681565b6100aa61015436600461066a565b610377565b6100aa6101673660046105c2565b610402565b6101a961017a3660046105c2565b6001600160a01b0316600090815260208190526040902060020154610100900467ffffffffffffffff16151590565b60405190151581526020016100d3565b6100aa6101c73660046106a6565b61044f565b3360009081526020819052604081206002810154909161010090910467ffffffffffffffff1690036102115760405163aba4733960e01b815260040160405180910390fd5b60018101610220838583610791565b50336001600160a01b03167fdd635a4cd84864e37e4479dbfc2ec667acfa473c83c8422a8ac9d9d07599b01c848460405161025c92919061087a565b60405180910390a2505050565b604080516080810182526000808252606060208301819052928201819052918101919091526001600160a01b038216600090815260208181526040918290208251608081019093528054835260018101805491928401916102c990610708565b80601f01602080910402602001604051908101604052809291908181526020018280546102f590610708565b80156103425780601f1061031757610100808354040283529160200191610342565b820191906000526020600020905b81548152906001019060200180831161032557829003601f168201915b50505091835250506002919091015460ff811615156020830152610100900467ffffffffffffffff1660409091015292915050565b6001546001600160a01b031633146103a2576040516332ae601560e21b815260040160405180910390fd5b6001600160a01b03821660008181526020818152604091829020600201805460ff191685151590811790915591519182527f47c2fe366d871f1380031d3bf5650082f0c2830e48a05fb3821e0b862757ad36910160405180910390a25050565b6002546001600160a01b0316331461042d576040516330cd747160e01b815260040160405180910390fd5b600180546001600160a01b0319166001600160a01b0392909216919091179055565b8261046d57604051630f35a7eb60e21b815260040160405180910390fd5b3360009081526020819052604090206002810154848255610100900467ffffffffffffffff1615600182016104a3848683610791565b5080156104cf5760028201805468ffffffffffffffff0019166101004267ffffffffffffffff16021790555b336001600160a01b03167fb5e40ee7342dbfc9a69f18dcafa0ce9b1cf82362987b8552d82ef3b73689025386868660405161050c93929190610896565b60405180910390a25050505050565b60008083601f84011261052d57600080fd5b50813567ffffffffffffffff81111561054557600080fd5b60208301915083602082850101111561055d57600080fd5b9250929050565b6000806020838503121561057757600080fd5b823567ffffffffffffffff81111561058e57600080fd5b61059a8582860161051b565b90969095509350505050565b80356001600160a01b03811681146105bd57600080fd5b919050565b6000602082840312156105d457600080fd5b6105dd826105a6565b9392505050565b6020815281516020820152600060208301516080604084015280518060a085015260005b8181101561062557602081840181015160c0878401015201610608565b50600084820160c00152604085015180151560608601529150606085015167ffffffffffffffff811660808601529150601f01601f19169290920160c0019392505050565b6000806040838503121561067d57600080fd5b610686836105a6565b91506020830135801515811461069b57600080fd5b809150509250929050565b6000806000604084860312156106bb57600080fd5b83359250602084013567ffffffffffffffff8111156106d957600080fd5b6106e58682870161051b565b9497909650939450505050565b634e487b7160e01b600052604160045260246000fd5b600181811c9082168061071c57607f821691505b60208210810361073c57634e487b7160e01b600052602260045260246000fd5b50919050565b601f82111561078c57806000526020600020601f840160051c810160208510156107695750805b601f840160051c820191505b818110156107895760008155600101610775565b50505b505050565b67ffffffffffffffff8311156107a9576107a96106f2565b6107bd836107b78354610708565b83610742565b6000601f8411600181146107f157600085156107d95750838201355b600019600387901b1c1916600186901b178355610789565b600083815260209020601f19861690835b828110156108225786850135825560209485019460019092019101610802565b508682101561083f5760001960f88860031b161c19848701351681555b505060018560011b0183555050505050565b81835281816020850137506000828201602090810191909152601f909101601f19169091010190565b60208152600061088e602083018486610851565b949350505050565b8381526040602082015260006108b0604083018486610851565b9594505050505056fea264697066735822122082a69e2433079187d5d985a6adbbf9b2275e1b3dc8c16ffb02e81d1b98869df764736f6c634300081a0033",
  "linkReferences": {},
  "deployedLinkReferences": {}
}