{"contracts/IdentityRegistry.sol":{"IdentityRegistry":{"abi":[{"inputs":[{"internalType":"address","name":"attester","type":"address"}],"stateMutability":"nonpayable","type":"constructor"},{"inputs":[],"name":"EmptyKey","type":"error"},{"inputs":[],"name":"NotAttester","type":"error"},{"inputs":[],"name":"NotOwner","type":"error"},{"inputs":[],"name":"NotRegistered","type":"error"},{"anonymous":false,"inputs":[{"indexed":true,"internalType":"address","name":"account","type":"address"},{"indexed":false,"internalType":"bool","name":"personhood","type":"bool"}],"name":"PersonhoodAttested","type":"event"},{"anonymous":false,"inputs":[{"indexed":true,"internalType":"address","name":"account","type":"address"},{"indexed":false,"internalType":"string","name":"profileCid","type":"string"}],"name":"ProfileUpdated","type":"event"},{"anonymous":false,"inputs":[{"indexed":true,"internalType":"address","name":"account","type":"address"},{"indexed":false,"internalType":"bytes32","name":"encryptionPubKey","type":"bytes32"},{"indexed":false,"internalType":"string","name":"profileCid","type":"string"}],"name":"Registered","type":"event"},{"inputs":[{"internalType":"address","name":"account","type":"address"},{"internalType":"bool","name":"value","type":"bool"}],"name":"attestPersonhood","outputs":[],"stateMutability":"nonpayable","type":"function"},{"inputs":[{"internalType":"address","name":"account","type":"address"}],"name":"encryptionKeyOf","outputs":[{"internalType":"bytes32","name":"","type":"bytes32"}],"stateMutability":"view","type":"function"},{"inputs":[{"internalType":"address","name":"account","type":"address"}],"name":"isRegistered","outputs":[{"internalType":"bool","name":"","type":"bool"}],"stateMutability":"view","type":"function"},{"inputs":[],"name":"owner","outputs":[{"internalType":"address","name":"","type":"address"}],"stateMutability":"view","type":"function"},{"inputs":[],"name":"personhoodAttester","outputs":[{"internalType":"address","name":"","type":"address"}],"stateMutability":"view","type":"function"},{"inputs":[{"internalType":"address","name":"account","type":"address"}],"name":"profileOf","outputs":[{"components":[{"internalType":"bytes32","name":"encryptionPubKey","type":"bytes32"},{"internalType":"string","name":"profileCid","type":"string"},{"internalType":"bool","name":"personhood","type":"bool"},{"internalType":"uint64","name":"registeredAt","type":"uint64"}],"internalType":"struct IIdentityRegistry.Profile","name":"","type":"tuple"}],"stateMutability":"view","type":"function"},{"inputs":[{"internalType":"bytes32","name":"encryptionPubKey","type":"bytes32"},{"internalType":"string","name":"profileCid","type":"string"}],"name":"register","outputs":[],"stateMutability":"nonpayable","type":"function"},{"inputs":[{"internalType":"address","name":"attester","type":"address"}],"name":"setAttester","outputs":[],"stateMutability":"nonpayable","type":"function"},{"inputs":[{"internalType":"string","name":"profileCid","type":"string"}],"name":"updateProfile","outputs":[],"stateMutability":"nonpayable","type":"function"}],"evm":{"bytecode":{"linkReferences":{},"object":"6080604052348015600f57600080fd5b5060405161098a38038061098a833981016040819052602c91605e565b60028054336001600160a01b031991821617909155600180549091166001600160a01b0392909216919091179055608c565b600060208284031215606f57600080fd5b81516001600160a01b0381168114608557600080fd5b9392505050565b6108ef8061009b6000396000f3fe608060405234801561001057600080fd5b50600436106100925760003560e01c80638da5cb5b116100665780638da5cb5b1461013357806398d176fb146101465780639daf85ab14610159578063c3c5a5471461016c578063cf2d31fb146101b957600080fd5b80629299e3146100975780631a3d76fc146100ac5780632f8eb9cb146100dc57806377c8c51a146100fc575b600080fd5b6100aa6100a5366004610564565b6101cc565b005b6001546100bf906001600160a01b031681565b6040516001600160a01b0390911681526020015b60405180910390f35b6100ef6100ea3660046105c2565b610269565b6040516100d391906105e4565b61012561010a3660046105c2565b6001600160a01b031660009081526020819052604090205490565b6040519081526020016100d3565b6002546100bf906001600160a01b031681565b6100aa61015436600461066a565b610377565b6100aa6101673660046105c2565b610402565b6101a961017a3660046105c2565b6001600160a01b0316600090815260208190526040902060020154610100900467ffffffffffffffff16151590565b60405190151581526020016100d3565b6100aa6101c73660046106a6565b61044f565b3360009081526020819052604081206002810154909161010090910467ffffffffffffffff1690036102115760405163aba4733960e01b815260040160405180910390fd5b60018101610220838583610791565b50336001600160a01b03167fdd635a4cd84864e37e4479dbfc2ec667acfa473c83c8422a8ac9d9d07599b01c848460405161025c92919061087a565b60405180910390a2505050565b604080516080810182526000808252606060208301819052928201819052918101919091526001600160a01b038216600090815260208181526040918290208251608081019093528054835260018101805491928401916102c990610708565b80601f01602080910402602001604051908101604052809291908181526020018280546102f590610708565b80156103425780601f1061031757610100808354040283529160200191610342565b820191906000526020600020905b81548152906001019060200180831161032557829003601f168201915b50505091835250506002919091015460ff811615156020830152610100900467ffffffffffffffff1660409091015292915050565b6001546001600160a01b031633146103a2576040516332ae601560e21b815260040160405180910390fd5b6001600160a01b03821660008181526020818152604091829020600201805460ff191685151590811790915591519182527f47c2fe366d871f1380031d3bf5650082f0c2830e48a05fb3821e0b862757ad36910160405180910390a25050565b6002546001600160a01b0316331461042d576040516330cd747160e01b815260040160405180910390fd5b600180546001600160a01b0319166001600160a01b0392909216919091179055565b8261046d57604051630f35a7eb60e21b815260040160405180910390fd5b3360009081526020819052604090206002810154848255610100900467ffffffffffffffff1615600182016104a3848683610791565b5080156104cf5760028201805468ffffffffffffffff0019166101004267ffffffffffffffff16021790555b336001600160a01b03167fb5e40ee7342dbfc9a69f18dcafa0ce9b1cf82362987b8552d82ef3b73689025386868660405161050c93929190610896565b60405180910390a25050505050565b60008083601f84011261052d57600080fd5b50813567ffffffffffffffff81111561054557600080fd5b60208301915083602082850101111561055d57600080fd5b9250929050565b6000806020838503121561057757600080fd5b823567ffffffffffffffff81111561058e57600080fd5b61059a8582860161051b565b90969095509350505050565b80356001600160a01b03811681146105bd57600080fd5b919050565b6000602082840312156105d457600080fd5b6105dd826105a6565b9392505050565b6020815281516020820152600060208301516080604084015280518060a085015260005b8181101561062557602081840181015160c0878401015201610608565b50600084820160c00152604085015180151560608601529150606085015167ffffffffffffffff811660808601529150601f01601f19169290920160c0019392505050565b6000806040838503121561067d57600080fd5b610686836105a6565b91506020830135801515811461069b57600080fd5b809150509250929050565b6000806000604084860312156106bb57600080fd5b83359250602084013567ffffffffffffffff8111156106d957600080fd5b6106e58682870161051b565b9497909650939450505050565b634e487b7160e01b600052604160045260246000fd5b600181811c9082168061071c57607f821691505b60208210810361073c57634e487b7160e01b600052602260045260246000fd5b50919050565b601f82111561078c57806000526020600020601f840160051c810160208510156107695750805b601f840160051c820191505b818110156107895760008155600101610775565b50505b505050565b67ffffffffffffffff8311156107a9576107a96106f2565b6107bd836107b78354610708565b83610742565b6000601f8411600181146107f157600085156107d95750838201355b600019600387901b1c1916600186901b178355610789565b600083815260209020601f19861690835b828110156108225786850135825560209485019460019092019101610802565b508682101561083f5760001960f88860031b161c19848701351681555b505060018560011b0183555050505050565b81835281816020850137506000828201602090810191909152601f909101601f19169091010190565b60208152600061088e602083018486610851565b949350505050565b8381526040602082015260006108b0604083018486610851565b9594505050505056fea264697066735822122082a69e2433079187d5d985a6adbbf9b2275e1b3dc8c16ffb02e81d1b98869df764736f6c634300081a0033","opcodes":"PUSH1 0x80 PUSH1 0x40 MSTORE CALLVALUE DUP1 ISZERO PUSH1 0xF JUMPI PUSH1 0x0 DUP1 REVERT JUMPDEST POP PUSH1 0x40 MLOAD PUSH2 0x98A CODESIZE SUB DUP1 PUSH2 0x98A DUP4 CODECOPY DUP2 ADD PUSH1 0x40 DUP2 SWAP1 MSTORE PUSH1 0x2C SWAP2 PUSH1 0x5E JUMP JUMPDEST PUSH1 0x2 DUP1 SLOAD CALLER PUSH1 0x1 PUSH1 0x1 PUSH1 0xA0 SHL SUB NOT SWAP2 DUP3 AND OR SWAP1 SWAP2 SSTORE PUSH1 0x1 DUP1 SLOAD SWAP1 SWAP2 AND PUSH1 0x1 PUSH1 0x1 PUSH1 0xA0 SHL SUB SWAP3 SWAP1 SWAP3 AND SWAP2 SWAP1 SWAP2 OR SWAP1 SSTORE PUSH1 0x8C JUMP JUMPDEST PUSH1 0x0 PUSH1 0x20 DUP3 DUP5 SUB SLT ISZERO PUSH1 0x6F JUMPI PUSH1 0x0 DUP1 REVERT JUMPDEST DUP2 MLOAD PUSH1 0x1 PUSH1 0x1 PUSH1 0xA0 SHL SUB DUP2 AND DUP2 EQ PUSH1 0x85 JUMPI PUSH1 0x0 DUP1 REVERT JUMPDEST SWAP4 SWAP3 POP POP POP JUMP JUMPDEST PUSH2 0x8EF DUP1 PUSH2 0x9B PUSH1 0x0 CODECOPY PUSH1 0x0 RETURN INVALID PUSH1 0x80 PUSH1 0x40 MSTORE CALLVALUE DUP1 ISZERO PUSH2 0x10 JUMPI PUSH1 0x0 DUP1 REVERT JUMPDEST POP PUSH1 0x4 CALLDATASIZE LT PUSH2 0x92 JUMPI PUSH1 0x0 CALLDATALOAD PUSH1 0xE0 SHR DUP1 PUSH4 0x8DA5CB5B GT PUSH2 0x66 JUMPI DUP1 PUSH4 0x8DA5CB5B EQ PUSH2 0x133 JUMPI DUP1 PUSH4 0x98D176FB EQ PUSH2 0x146 JUMPI DUP1 PUSH4 0x9DAF85AB EQ PUSH2 0x159 JUMPI DUP1 PUSH4 0xC3C5A547 EQ PUSH2 0x16C JUMPI DUP1 PUSH4 0xCF2D31FB EQ PUSH2 0x1B9 JUMPI PUSH1 0x0 DUP1 REVERT JUMPDEST DUP1 PUSH3 0x9299E3 EQ PUSH2 0x97 JUMPI DUP1 PUSH4 0x1A3D76FC EQ PUSH2 0xAC JUMPI DUP1 PUSH4 0x2F8EB9CB EQ PUSH2 0xDC JUMPI DUP1 PUSH4 0x77C8C51A EQ PUSH2 0xFC JUMPI JUMPDEST PUSH1 0x0 DUP1 REVERT JUMPDEST PUSH2 0xAA PUSH2 0xA5 CALLDATASIZE PUSH1 0x4 PUSH2 0x564 JUMP JUMPDEST PUSH2 0x1CC JUMP JUMPDEST STOP JUMPDEST PUSH1 0x1 SLOAD PUSH2 0xBF SWAP1 PUSH1 0x1 PUSH1 0x1 PUSH1 0xA0 SHL SUB AND DUP2 JUMP JUMPDEST PUSH1 0x40 MLOAD PUSH1 0x1 PUSH1 0x1 PUSH1 0xA0 SHL SUB SWAP1 SWAP2 AND DUP2 MSTORE PUSH1 0x20 ADD JUMPDEST PUSH1 0x40 MLOAD DUP1 SWAP2 SUB SWAP1 RETURN JUMPDEST PUSH2 0xEF PUSH2 0xEA CALLDATASIZE PUSH1 0x4 PUSH2 0x5C2 JUMP JUMPDEST PUSH2 0x269 JUMP JUMPDEST PUSH1 0x40 MLOAD PUSH2 0xD3 SWAP2 SWAP1 PUSH2 0x5E4 JUMP JUMPDEST PUSH2 0x125 PUSH2 0x10A CALLDATASIZE PUSH1 0x4 PUSH2 0x5C2 JUMP JUMPDEST PUSH1 0x1 PUSH1 0x1 PUSH1 0xA0 SHL SUB AND PUSH1 0x0 SWAP1 DUP2 MSTORE PUSH1 0x20 DUP2 SWAP1 MSTORE PUSH1 0x40 SWAP1 KECCAK256 SLOAD SWAP1 JUMP JUMPDEST PUSH1 0x40 MLOAD SWAP1 DUP2 MSTORE PUSH1 0x20 ADD PUSH2 0xD3 JUMP JUMPDEST PUSH1 0x2 SLOAD PUSH2 0xBF SWAP1 PUSH1 0x1 PUSH1 0x1 PUSH1 0xA0 SHL SUB AND DUP2 JUMP JUMPDEST PUSH2 0xAA PUSH2 0x154 CALLDATASIZE PUSH1 0x4 PUSH2 0x66A JUMP JUMPDEST PUSH2 0x377 JUMP JUMPDEST PUSH2 0xAA PUSH2 0x167 CALLDATASIZE PUSH1 0x4 PUSH2 0x5C2 JUMP JUMPDEST PUSH2 0x402 JUMP JUMPDEST PUSH2 0x1A9 PUSH2 0x17A CALLDATASIZE PUSH1 0x4 PUSH2 0x5C2 JUMP JUMPDEST PUSH1 0x1 PUSH1 0x1 PUSH1 0xA0 SHL SUB AND PUSH1 0x0 SWAP1 DUP2 MSTORE PUSH1 0x20 DUP2 SWAP1 MSTORE PUSH1 0x40 SWAP1 KECCAK256 PUSH1 0x2 ADD SLOAD PUSH2 0x100 SWAP1 DIV PUSH8 0xFFFFFFFFFFFFFFFF AND ISZERO ISZERO SWAP1 JUMP JUMPDEST PUSH1 0x40 MLOAD SWAP1 ISZERO ISZERO DUP2 MSTORE PUSH1 0x20 ADD PUSH2 0xD3 JUMP JUMPDEST PUSH2 0xAA PUSH2 0x1C7 CALLDATASIZE PUSH1 0x4 PUSH2 0x6A6 JUMP JUMPDEST PUSH2 0x44F JUMP JUMPDEST CALLER PUSH1 0x0 SWAP1 DUP2 MSTORE PUSH1 0x20 DUP2 SWAP1 MSTORE PUSH1 0x40 DUP2 KECCAK256 PUSH1 0x2 DUP2 ADD SLOAD SWAP1 SWAP2 PUSH2 0x100 SWAP1 SWAP2 DIV PUSH8 0xFFFFFFFFFFFFFFFF AND SWAP1 SUB PUSH2 0x211 JUMPI PUSH1 0x40 MLOAD PUSH4 0xABA47339 PUSH1 0xE0 SHL DUP2 MSTORE PUSH1 0x4 ADD PUSH1 0x40 MLOAD DUP1 SWAP2 SUB SWAP1 REVERT JUMPDEST PUSH1 0x1 DUP2 ADD PUSH2 0x220 DUP4 DUP6 DUP4 PUSH2 0x791 JUMP JUMPDEST POP CALLER PUSH1 0x1 PUSH1 0x1 PUSH1 0xA0 SHL SUB AND PUSH32 0xDD635A4CD84864E37E4479DBFC2EC667ACFA473C83C8422A8AC9D9D07599B01C DUP5 DUP5 PUSH1 0x40 MLOAD PUSH2 0x25C SWAP3 SWAP2 SWAP1 PUSH2 0x87A JUMP JUMPDEST PUSH1 0x40 MLOAD DUP1 SWAP2 SUB SWAP1 LOG2 POP POP POP JUMP JUMPDEST PUSH1 0x40 DUP1 MLOAD PUSH1 0x80 DUP2 ADD DUP3 MSTORE PUSH1 0x0 DUP1 DUP3 MSTORE PUSH1 0x60 PUSH1 0x20 DUP4 ADD DUP2 SWAP1 MSTORE SWAP3 DUP3 ADD DUP2 SWAP1 MSTORE SWAP2 DUP2 ADD SWAP2 SWAP1 SWAP2 MSTORE PUSH1 0x1 PUSH1 0x1 PUSH1 0xA0 SHL SUB DUP3 AND PUSH1 0x0 SWAP1 DUP2 MSTORE PUSH1 0x20 DUP2 DUP2 MSTORE PUSH1 0x40 SWAP2 DUP3 SWAP1 KECCAK256 DUP3 MLOAD PUSH1 0x80 DUP2 ADD SWAP1 SWAP4 MSTORE DUP1 SLOAD DUP4 MSTORE PUSH1 0x1 DUP2 ADD DUP1 SLOAD SWAP2 SWAP3 DUP5 ADD SWAP2 PUSH2 0x2C9 SWAP1 PUSH2 0x708 JUMP JUMPDEST DUP1 PUSH1 0x1F ADD PUSH1 0x20 DUP1 SWAP2 DIV MUL PUSH1 0x20 ADD PUSH1 0x40 MLOAD SWAP1 DUP2 ADD PUSH1 0x40 MSTORE DUP1 SWAP3 SWAP2 SWAP1 DUP2 DUP2 MSTORE PUSH1 0x20 ADD DUP3 DUP1 SLOAD PUSH2 0x2F5 SWAP1 PUSH2 0x708 JUMP JUMPDEST DUP1 ISZERO PUSH2 0x342 JUMPI DUP1 PUSH1 0x1F LT PUSH2 0x317 JUMPI PUSH2 0x100 DUP1 DUP4 SLOAD DIV MUL DUP4 MSTORE SWAP2 PUSH1 0x20 ADD SWAP2 PUSH2 0x342 JUMP JUMPDEST DUP3 ADD SWAP2 SWAP1 PUSH1 0x0 MSTORE PUSH1 0x20 PUSH1 0x0 KECCAK256 SWAP1 JUMPDEST DUP2 SLOAD DUP2 MSTORE SWAP1 PUSH1 0x1 ADD SWAP1 PUSH1 0x20 ADD DUP1 DUP4 GT PUSH2 0x325 JUMPI DUP3 SWAP1 SUB PUSH1 0x1F AND DUP3 ADD SWAP2 JUMPDEST POP POP POP SWAP2 DUP4 MSTORE POP POP PUSH1 0x2 SWAP2 SWAP1 SWAP2 ADD SLOAD PUSH1 0xFF DUP2 AND ISZERO ISZERO PUSH1 0x20 DUP4 ADD MSTORE PUSH2 0x100 SWAP1 DIV PUSH8 0xFFFFFFFFFFFFFFFF AND PUSH1 0x40 SWAP1 SWAP2 ADD MSTORE SWAP3 SWAP2 POP POP JUMP JUMPDEST PUSH1 0x1 SLOAD PUSH1 0x1 PUSH1 0x1 PUSH1 0xA0 SHL SUB AND CALLER EQ PUSH2 0x3A2 JUMPI PUSH1 0x40 MLOAD PUSH4 0x32AE6015 PUSH1 0xE2 SHL DUP2 MSTORE PUSH1 0x4 ADD PUSH1 0x40 MLOAD DUP1 SWAP2 SUB SWAP1 REVERT JUMPDEST PUSH1 0x1 PUSH1 0x1 PUSH1 0xA0 SHL SUB DUP3 AND PUSH1 0x0 DUP2 DUP2 MSTORE PUSH1 0x20 DUP2 DUP2 MSTORE PUSH1 0x40 SWAP2 DUP3 SWAP1 KECCAK256 PUSH1 0x2 ADD DUP1 SLOAD PUSH1 0xFF NOT AND DUP6 ISZERO ISZERO SWAP1 DUP2 OR SWAP1 SWAP2 SSTORE SWAP2 MLOAD SWAP2 DUP3 MSTORE PUSH32 0x47C2FE366D871F1380031D3BF5650082F0C2830E48A05FB3821E0B862757AD36 SWAP2 ADD PUSH1 0x40 MLOAD DUP1 SWAP2 SUB SWAP1 LOG2 POP POP JUMP JUMPDEST PUSH1 0x2 SLOAD PUSH1 0x1 PUSH1 0x1 PUSH1 0xA0 SHL SUB AND CALLER EQ PUSH2 0x42D JUMPI PUSH1 0x40 MLOAD PUSH4 0x30CD7471 PUSH1 0xE0 SHL DUP2 MSTORE PUSH1 0x4 ADD PUSH1 0x40 MLOAD DUP1 SWAP2 SUB SWAP1 REVERT JUMPDEST PUSH1 0x1 DUP1 SLOAD PUSH1 0x1 PUSH1 0x1 PUSH1 0xA0 SHL SUB NOT AND PUSH1 0x1 PUSH1 0x1 PUSH1 0xA0 SHL SUB SWAP3 SWAP1 SWAP3 AND SWAP2 SWAP1 SWAP2 OR SWAP1 SSTORE JUMP JUMPDEST DUP3 PUSH2 0x46D JUMPI PUSH1 0x40 MLOAD PUSH4 0xF35A7EB PUSH1 0xE2 SHL DUP2 MSTORE PUSH1 0x4 ADD PUSH1 0x40 MLOAD DUP1 SWAP2 SUB SWAP1 REVERT JUMPDEST CALLER PUSH1 0x0 SWAP1 DUP2 MSTORE PUSH1 0x20 DUP2 SWAP1 MSTORE PUSH1 0x40 SWAP1 KECCAK256 PUSH1 0x2 DUP2 ADD SLOAD DUP5 DUP3 SSTORE PUSH2 0x100 SWAP1 DIV PUSH8 0xFFFFFFFFFFFFFFFF AND ISZERO PUSH1 0x1 DUP3 ADD PUSH2 0x4A3 DUP5 DUP7 DUP4 PUSH2 0x791 JUMP JUMPDEST POP DUP1 ISZERO PUSH2 0x4CF JUMPI PUSH1 0x2 DUP3 ADD DUP1 SLOAD PUSH9 0xFFFFFFFFFFFFFFFF00 NOT AND PUSH2 0x100 TIMESTAMP PUSH8 0xFFFFFFFFFFFFFFFF AND MUL OR SWAP1 SSTORE JUMPDEST CALLER PUSH1 0x1 PUSH1 0x1 PUSH1 0xA0 SHL SUB AND PUSH32 0xB5E40EE7342DBFC9A69F18DCAFA0CE9B1CF82362987B8552D82EF3B736890253 DUP7 DUP7 DUP7 PUSH1 0x40 MLOAD PUSH2 0x50C SWAP4 SWAP3 SWAP2 SWAP1 PUSH2 0x896 JUMP JUMPDEST PUSH1 0x40 MLOAD DUP1 SWAP2 SUB SWAP1 LOG2 POP POP POP POP POP JUMP JUMPDEST PUSH1 0x0 DUP1 DUP4 PUSH1 0x1F DUP5 ADD SLT PUSH2 0x52D JUMPI PUSH1 0x0 DUP1 REVERT JUMPDEST POP DUP2 CALLDATALOAD PUSH8 0xFFFFFFFFFFFFFFFF DUP2 GT ISZERO PUSH2 0x545 JUMPI PUSH1 0x0 DUP1 REVERT JUMPDEST PUSH1 0x20 DUP4 ADD SWAP2 POP DUP4 PUSH1 0x20 DUP3 DUP6 ADD ADD GT ISZERO PUSH2 0x55D JUMPI PUSH1 0x0 DUP1 REVERT JUMPDEST SWAP3 POP SWAP3 SWAP1 POP JUMP JUMPDEST PUSH1 0x0 DUP1 PUSH1 0x20 DUP4 DUP6 SUB SLT ISZERO PUSH2 0x577 JUMPI PUSH1 0x0 DUP1 REVERT JUMPDEST DUP3 CALLDATALOAD PUSH8 0xFFFFFFFFFFFFFFFF DUP2 GT ISZERO PUSH2 0x58E JUMPI PUSH1 0x0 DUP1 REVERT JUMPDEST PUSH2 0x59A DUP6 DUP3 DUP7 ADD PUSH2 0x51B JUMP JUMPDEST SWAP1 SWAP7 SWAP1 SWAP6 POP SWAP4 POP POP POP POP JUMP JUMPDEST DUP1 CALLDATALOAD PUSH1 0x1 PUSH1 0x1 PUSH1 0xA0 SHL SUB DUP2 AND DUP2 EQ PUSH2 0x5BD JUMPI PUSH1 0x0 DUP1 REVERT JUMPDEST SWAP2 SWAP1 POP JUMP JUMPDEST PUSH1 0x0 PUSH1 0x20 DUP3 DUP5 SUB SLT ISZERO PUSH2 0x5D4 JUMPI PUSH1 0x0 DUP1 REVERT JUMPDEST PUSH2 0x5DD DUP3 PUSH2 0x5A6 JUMP JUMPDEST SWAP4 SWAP3 POP POP POP JUMP JUMPDEST PUSH1 0x20 DUP2 MSTORE DUP2 MLOAD PUSH1 0x20 DUP3 ADD MSTORE PUSH1 0x0 PUSH1 0x20 DUP4 ADD MLOAD PUSH1 0x80 PUSH1 0x40 DUP5 ADD MSTORE DUP1 MLOAD DUP1 PUSH1 0xA0 DUP6 ADD MSTORE PUSH1 0x0 JUMPDEST DUP2 DUP2 LT ISZERO PUSH2 0x625 JUMPI PUSH1 0x20 DUP2 DUP5 ADD DUP2 ADD MLOAD PUSH1 0xC0 DUP8 DUP5 ADD ADD MSTORE ADD PUSH2 0x608 JUMP JUMPDEST POP PUSH1 0x0 DUP5 DUP3 ADD PUSH1 0xC0 ADD MSTORE PUSH1 0x40 DUP6 ADD MLOAD DUP1 ISZERO ISZERO PUSH1 0x60 DUP7 ADD MSTORE SWAP2 POP PUSH1 0x60 DUP6 ADD MLOAD PUSH8 0xFFFFFFFFFFFFFFFF DUP2 AND PUSH1 0x80 DUP7 ADD MSTORE SWAP2 POP PUSH1 0x1F ADD PUSH1 0x1F NOT AND SWAP3 SWAP1 SWAP3 ADD PUSH1 0xC0 ADD SWAP4 SWAP3 POP POP POP JUMP JUMPDEST PUSH1 0x0 DUP1 PUSH1 0x40 DUP4 DUP6 SUB SLT ISZERO PUSH2 0x67D JUMPI PUSH1 0x0 DUP1 REVERT JUMPDEST PUSH2 0x686 DUP4 PUSH2 0x5A6 JUMP JUMPDEST SWAP2 POP PUSH1 0x20 DUP4 ADD CALLDATALOAD DUP1 ISZERO ISZERO DUP2 EQ PUSH2 0x69B JUMPI PUSH1 0x0 DUP1 REVERT JUMPDEST DUP1 SWAP2 POP POP SWAP3 POP SWAP3 SWAP1 POP JUMP JUMPDEST PUSH1 0x0 DUP1 PUSH1 0x0 PUSH1 0x40 DUP5 DUP7 SUB SLT ISZERO PUSH2 0x6BB JUMPI PUSH1 0x0 DUP1 REVERT JUMPDEST DUP4 CALLDATALOAD SWAP3 POP PUSH1 0x20 DUP5 ADD CALLDATALOAD PUSH8 0xFFFFFFFFFFFFFFFF DUP2 GT ISZERO PUSH2 0x6D9 JUMPI PUSH1 0x0 DUP1 REVERT JUMPDEST PUSH2 0x6E5 DUP7 DUP3 DUP8 ADD PUSH2 0x51B JUMP JUMPDEST SWAP5 SWAP8 SWAP1 SWAP7 POP SWAP4 SWAP5 POP POP POP POP JUMP JUMPDEST PUSH4 0x4E487B71 PUSH1 0xE0 SHL PUSH1 0x0 MSTORE PUSH1 0x41 PUSH1 0x4 MSTORE PUSH1 0x24 PUSH1 0x0 REVERT JUMPDEST PUSH1 0x1 DUP2 DUP2 SHR SWAP1 DUP3 AND DUP1 PUSH2 0x71C JUMPI PUSH1 0x7F DUP3 AND SWAP2 POP JUMPDEST PUSH1 0x20 DUP3 LT DUP2 SUB PUSH2 0x73C JUMPI PUSH4 0x4E487B71 PUSH1 0xE0 SHL PUSH1 0x0 MSTORE PUSH1 0x22 PUSH1 0x4 MSTORE PUSH1 0x24 PUSH1 0x0 REVERT JUMPDEST POP SWAP2 SWAP1 POP JUMP JUMPDEST PUSH1 0x1F DUP3 GT ISZERO PUSH2 0x78C JUMPI DUP1 PUSH1 0x0 MSTORE PUSH1 0x20 PUSH1 0x0 KECCAK256 PUSH1 0x1F DUP5 ADD PUSH1 0x5 SHR DUP2 ADD PUSH1 0x20 DUP6 LT ISZERO PUSH2 0x769 JUMPI POP DUP1 JUMPDEST PUSH1 0x1F DUP5 ADD PUSH1 0x5 SHR DUP3 ADD SWAP2 POP JUMPDEST DUP2 DUP2 LT ISZERO PUSH2 0x789 JUMPI PUSH1 0x0 DUP2 SSTORE PUSH1 0x1 ADD PUSH2 0x775 JUMP JUMPDEST POP POP JUMPDEST POP POP POP JUMP JUMPDEST PUSH8 0xFFFFFFFFFFFFFFFF DUP4 GT ISZERO PUSH2 0x7A9 JUMPI PUSH2 0x7A9 PUSH2 0x6F2 JUMP JUMPDEST PUSH2 0x7BD DUP4 PUSH2 0x7B7 DUP4 SLOAD PUSH2 0x708 JUMP JUMPDEST DUP4 PUSH2 0x742 JUMP JUMPDEST PUSH1 0x0 PUSH1 0x1F DUP5 GT PUSH1 0x1 DUP2 EQ PUSH2 0x7F1 JUMPI PUSH1 0x0 DUP6 ISZERO PUSH2 0x7D9 JUMPI POP DUP4 DUP3 ADD CALLDATALOAD JUMPDEST PUSH1 0x0 NOT PUSH1 0x3 DUP8 SWAP1 SHL SHR NOT AND PUSH1 0x1 DUP7 SWAP1 SHL OR DUP4 SSTORE PUSH2 0x789 JUMP JUMPDEST PUSH1 0x0 DUP4 DUP2 MSTORE PUSH1 0x20 SWAP1 KECCAK256 PUSH1 0x1F NOT DUP7 AND SWAP1 DUP4 JUMPDEST DUP3 DUP2 LT ISZERO PUSH2 0x822 JUMPI DUP7 DUP6 ADD CALLDATALOAD DUP3 SSTORE PUSH1 0x20 SWAP5 DUP6 ADD SWAP5 PUSH1 0x1 SWAP1 SWAP3 ADD SWAP2 ADD PUSH2 0x802 JUMP JUMPDEST POP DUP7 DUP3 LT ISZERO PUSH2 0x83F JUMPI PUSH1 0x0 NOT PUSH1 0xF8 DUP9 PUSH1 0x3 SHL AND SHR NOT DUP5 DUP8 ADD CALLDATALOAD AND DUP2 SSTORE JUMPDEST POP POP PUSH1 0x1 DUP6 PUSH1 0x1 SHL ADD DUP4 SSTORE POP POP POP POP POP JUMP JUMPDEST DUP2 DUP4 MSTORE DUP2 DUP2 PUSH1 0x20 DUP6 ADD CALLDATACOPY POP PUSH1 0x0 DUP3 DUP3 ADD PUSH1 0x20 SWAP1 DUP2 ADD SWAP2 SWAP1 SWAP2 MSTORE PUSH1 0x1F SWAP1 SWAP2 ADD PUSH1 0x1F NOT AND SWAP1 SWAP2 ADD ADD SWAP1 JUMP JUMPDEST PUSH1 0x20 DUP2 MSTORE PUSH1 0x0 PUSH2 0x88E PUSH1 0x20 DUP4 ADD DUP5 DUP7 PUSH2 0x851 JUMP JUMPDEST SWAP5 SWAP4 POP POP POP POP JUMP JUMPDEST DUP4 DUP2 MSTORE PUSH1 0x40 PUSH1 0x20 DUP3 ADD MSTORE PUSH1 0x0 PUSH2 0x8B0 PUSH1 0x40 DUP4 ADD DUP5 DUP7 PUSH2 0x851 JUMP JUMPDEST SWAP6 SWAP5 POP POP POP POP POP JUMP INVALID LOG2 PUSH5 0x6970667358 0x22 SLT KECCAK256 DUP3 0xA6 SWAP15 0x24 CALLER SMOD SWAP2 DUP8 0xD5 0xD9 DUP6 0xA6 0xAD 0xBB 0xF9 0xB2 0x27 MCOPY SHL RETURNDATASIZE 0xC8 0xC1 PUSH16 0xFB02E81D1B98869DF764736F6C634300 ADDMOD BYTE STOP CALLER "},"methodIdentifiers":{"attestPersonhood(address,bool)":"98d176fb","encryptionKeyOf(address)":"77c8c51a","isRegistered(address)":"c3c5a547","owner()":"8da5cb5b","personhoodAttester()":"1a3d76fc","profileOf(address)":"2f8eb9cb","register(bytes32,string)":"cf2d31fb","setAttester(address)":"9daf85ab","updateProfile(string)":"009299e3"}}}}}