{"contracts/AnonymousMail.sol":{"AnonymousMail":{"abi":[{"inputs":[{"internalType":"address","name":"identityRegistry","type":"address"}],"stateMutability":"nonpayable","type":"constructor"},{"inputs":[],"name":"BadIndex","type":"error"},{"inputs":[],"name":"NotOwner","type":"error"},{"inputs":[],"name":"NotRelayer","type":"error"},{"inputs":[],"name":"RecipientNotRegistered","type":"error"},{"anonymous":false,"inputs":[{"indexed":true,"internalType":"address","name":"to","type":"address"},{"indexed":true,"internalType":"uint256","name":"index","type":"uint256"}],"name":"MailBurned","type":"event"},{"anonymous":false,"inputs":[{"indexed":true,"internalType":"address","name":"to","type":"address"},{"indexed":true,"internalType":"uint256","name":"index","type":"uint256"},{"indexed":false,"internalType":"string","name":"cid","type":"string"},{"indexed":false,"internalType":"uint64","name":"expiresAt","type":"uint64"}],"name":"MailDelivered","type":"event"},{"anonymous":false,"inputs":[{"indexed":true,"internalType":"address","name":"to","type":"address"},{"indexed":true,"internalType":"uint256","name":"index","type":"uint256"}],"name":"MailRead","type":"event"},{"anonymous":false,"inputs":[{"indexed":true,"internalType":"address","name":"relay","type":"address"},{"indexed":false,"internalType":"bool","name":"allowed","type":"bool"}],"name":"RelayerSet","type":"event"},{"inputs":[{"internalType":"uint256","name":"index","type":"uint256"}],"name":"burn","outputs":[],"stateMutability":"nonpayable","type":"function"},{"inputs":[{"internalType":"address","name":"to","type":"address"},{"internalType":"string","name":"cid","type":"string"},{"internalType":"uint64","name":"expiresAt","type":"uint64"}],"name":"deliver","outputs":[{"internalType":"uint256","name":"index","type":"uint256"}],"stateMutability":"nonpayable","type":"function"},{"inputs":[{"internalType":"address","name":"account","type":"address"},{"internalType":"uint256","name":"offset","type":"uint256"},{"internalType":"uint256","name":"limit","type":"uint256"}],"name":"getInbox","outputs":[{"components":[{"internalType":"string","name":"cid","type":"string"},{"internalType":"uint64","name":"deliveredAt","type":"uint64"},{"internalType":"uint64","name":"expiresAt","type":"uint64"},{"internalType":"bool","name":"read","type":"bool"},{"internalType":"bool","name":"burned","type":"bool"}],"internalType":"struct AnonymousMail.Mail[]","name":"page","type":"tuple[]"}],"stateMutability":"view","type":"function"},{"inputs":[],"name":"identity","outputs":[{"internalType":"contract IIdentityRegistry","name":"","type":"address"}],"stateMutability":"view","type":"function"},{"inputs":[{"internalType":"address","name":"account","type":"address"}],"name":"inboxCount","outputs":[{"internalType":"uint256","name":"","type":"uint256"}],"stateMutability":"view","type":"function"},{"inputs":[{"internalType":"uint256","name":"index","type":"uint256"}],"name":"markRead","outputs":[],"stateMutability":"nonpayable","type":"function"},{"inputs":[],"name":"owner","outputs":[{"internalType":"address","name":"","type":"address"}],"stateMutability":"view","type":"function"},{"inputs":[{"internalType":"address","name":"","type":"address"}],"name":"relayer","outputs":[{"internalType":"bool","name":"","type":"bool"}],"stateMutability":"view","type":"function"},{"inputs":[{"internalType":"address","name":"relay","type":"address"},{"internalType":"bool","name":"allowed","type":"bool"}],"name":"setRelayer","outputs":[],"stateMutability":"nonpayable","type":"function"}],"evm":{"bytecode":{"linkReferences":{},"object":"60a0604052348015600f57600080fd5b50604051610ddf380380610ddf833981016040819052602c91604e565b600080546001600160a01b031916331790556001600160a01b0316608052607c565b600060208284031215605f57600080fd5b81516001600160a01b0381168114607557600080fd5b9392505050565b608051610d4261009d6000396000818160b201526102b60152610d426000f3fe608060405234801561001057600080fd5b50600436106100935760003560e01c806342966c681161006657806342966c681461013b57806363675b661461014e5780638da5cb5b1461016e578063c9b5ef8e14610181578063ecd8dc3a146101b457600080fd5b80631afe56aa146100985780632c159a1a146100ad5780632d2cb64e146100f157806330da5f9c14610112575b600080fd5b6100ab6100a636600461087f565b6101c7565b005b6100d47f000000000000000000000000000000000000000000000000000000000000000081565b6040516001600160a01b0390911681526020015b60405180910390f35b6101046100ff3660046108b4565b610267565b6040519081526020016100e8565b610104610120366004610959565b6001600160a01b031660009081526002602052604090205490565b6100ab61014936600461087f565b6104b7565b61016161015c366004610974565b610594565b6040516100e891906109a7565b6000546100d4906001600160a01b031681565b6101a461018f366004610959565b60016020526000908152604090205460ff1681565b60405190151581526020016100e8565b6100ab6101c2366004610abf565b6107f5565b336000908152600260205260409020805482106101f75760405163779ffa5760e11b815260040160405180910390fd5b600181838154811061020b5761020b610af6565b6000918252602082206001600290920201018054921515600160801b0260ff60801b1990931692909217909155604051839133917fb2feb4a993f0919d4f361a12ba74f7715cb4f472daa7ae124b0675492d079b309190a35050565b3360009081526001602052604081205460ff166102975760405163c64891a560e01b815260040160405180910390fd5b60405163c3c5a54760e01b81526001600160a01b0386811660048301527f0000000000000000000000000000000000000000000000000000000000000000169063c3c5a54790602401602060405180830381865afa1580156102fd573d6000803e3d6000fd5b505050506040513d601f19601f820116820180604052508101906103219190610b0c565b61033e57604051635283857b60e11b815260040160405180910390fd5b506001600160a01b0384166000908152600260209081526040918290208054835160c0601f88018590049094028101840190945260a08401868152909391928291908890889081908501838280828437600092018290525093855250505067ffffffffffffffff428116602080850191909152908716604084015260608301829052608090920181905283546001810185559381522081519192600202019081906103e99082610bc8565b5060208201516001909101805460408085015160608601516080909601511515600160881b0260ff60881b19961515600160801b029690961661ffff60801b1967ffffffffffffffff928316600160401b026fffffffffffffffffffffffffffffffff199095169290961691909117929092179390931617929092179091555181906001600160a01b038716907f3fa718c4f65d1f2724f782d9db8320afbb34d9954bec7c394aae5694ba51880e906104a790889088908890610c87565b60405180910390a3949350505050565b336000908152600260205260409020805482106104e75760405163779ffa5760e11b815260040160405180910390fd5b60018183815481106104fb576104fb610af6565b906000526020600020906002020160010160116101000a81548160ff0219169083151502179055506040518060200160405280600081525081838154811061054557610545610af6565b906000526020600020906002020160000190816105629190610bc8565b50604051829033907f743577539e06408ad753cbb7c7f0e75cd888cbe7745c8043585476a9d48259e190600090a35050565b6001600160a01b0383166000908152600260205260409020805460609190841061061357604080516000808252602082019092529061060a565b6040805160a081018252606080825260006020808401829052938301819052908201819052608082015282526000199092019101816105ce5790505b509150506107ee565b600061061f8486610ce0565b825490915081111561062f575080545b6106398582610cf9565b67ffffffffffffffff81111561065157610651610b29565b6040519080825280602002602001820160405280156106ab57816020015b6040805160a0810182526060808252600060208084018290529383018190529082018190526080820152825260001990920191018161066f5790505b509250845b818110156107ea578281815481106106ca576106ca610af6565b90600052602060002090600202016040518060a00160405290816000820180546106f390610b3f565b80601f016020809104026020016040519081016040528092919081815260200182805461071f90610b3f565b801561076c5780601f106107415761010080835404028352916020019161076c565b820191906000526020600020905b81548152906001019060200180831161074f57829003601f168201915b50505091835250506001919091015467ffffffffffffffff8082166020840152600160401b820416604083015260ff600160801b8204811615156060840152600160881b909104161515608090910152846107c78884610cf9565b815181106107d7576107d7610af6565b60209081029190910101526001016106b0565b5050505b9392505050565b6000546001600160a01b03163314610820576040516330cd747160e01b815260040160405180910390fd5b6001600160a01b038216600081815260016020908152604091829020805460ff191685151590811790915591519182527fee42947bc760229eeff964017ac68eddb00ba98b0defcd90a1bc85a5afceb057910160405180910390a25050565b60006020828403121561089157600080fd5b5035919050565b80356001600160a01b03811681146108af57600080fd5b919050565b600080600080606085870312156108ca57600080fd5b6108d385610898565b9350602085013567ffffffffffffffff8111156108ef57600080fd5b8501601f8101871361090057600080fd5b803567ffffffffffffffff81111561091757600080fd5b87602082840101111561092957600080fd5b60209190910193509150604085013567ffffffffffffffff8116811461094e57600080fd5b939692955090935050565b60006020828403121561096b57600080fd5b6107ee82610898565b60008060006060848603121561098957600080fd5b61099284610898565b95602085013595506040909401359392505050565b6000602082016020835280845180835260408501915060408160051b86010192506020860160005b82811015610aa257603f198786030184528151805160a0875280518060a089015260005b81811015610a1057602081840181015160c08b84010152016109f3565b50600060c0828a01015260208301519150610a37602089018367ffffffffffffffff169052565b60408301519150610a54604089018367ffffffffffffffff169052565b60608301519150610a69606089018315159052565b60808301519250610a7e608089018415159052565b601f01601f19169690960160c00195505060209384019391909101906001016109cf565b50929695505050505050565b8015158114610abc57600080fd5b50565b60008060408385031215610ad257600080fd5b610adb83610898565b91506020830135610aeb81610aae565b809150509250929050565b634e487b7160e01b600052603260045260246000fd5b600060208284031215610b1e57600080fd5b81516107ee81610aae565b634e487b7160e01b600052604160045260246000fd5b600181811c90821680610b5357607f821691505b602082108103610b7357634e487b7160e01b600052602260045260246000fd5b50919050565b601f821115610bc357806000526020600020601f840160051c81016020851015610ba05750805b601f840160051c820191505b81811015610bc05760008155600101610bac565b50505b505050565b815167ffffffffffffffff811115610be257610be2610b29565b610bf681610bf08454610b3f565b84610b79565b6020601f821160018114610c2a5760008315610c125750848201515b600019600385901b1c1916600184901b178455610bc0565b600084815260208120601f198516915b82811015610c5a5787850151825560209485019460019092019101610c3a565b5084821015610c785786840151600019600387901b60f8161c191681555b50505050600190811b01905550565b604081528260408201528284606083013760006060848301015260006060601f19601f860116830101905067ffffffffffffffff83166020830152949350505050565b634e487b7160e01b600052601160045260246000fd5b80820180821115610cf357610cf3610cca565b92915050565b81810381811115610cf357610cf3610cca56fea2646970667358221220fe7af224353e1928b7a8e26a1ab88f17b5869e66f0c67b1ccef2d356abfab2c064736f6c634300081a0033","opcodes":"PUSH1 0xA0 PUSH1 0x40 MSTORE CALLVALUE DUP1 ISZERO PUSH1 0xF JUMPI PUSH1 0x0 DUP1 REVERT JUMPDEST POP PUSH1 0x40 MLOAD PUSH2 0xDDF CODESIZE SUB DUP1 PUSH2 0xDDF DUP4 CODECOPY DUP2 ADD PUSH1 0x40 DUP2 SWAP1 MSTORE PUSH1 0x2C SWAP2 PUSH1 0x4E JUMP JUMPDEST PUSH1 0x0 DUP1 SLOAD PUSH1 0x1 PUSH1 0x1 PUSH1 0xA0 SHL SUB NOT AND CALLER OR SWAP1 SSTORE PUSH1 0x1 PUSH1 0x1 PUSH1 0xA0 SHL SUB AND PUSH1 0x80 MSTORE PUSH1 0x7C JUMP JUMPDEST PUSH1 0x0 PUSH1 0x20 DUP3 DUP5 SUB SLT ISZERO PUSH1 0x5F JUMPI PUSH1 0x0 DUP1 REVERT JUMPDEST DUP2 MLOAD PUSH1 0x1 PUSH1 0x1 PUSH1 0xA0 SHL SUB DUP2 AND DUP2 EQ PUSH1 0x75 JUMPI PUSH1 0x0 DUP1 REVERT JUMPDEST SWAP4 SWAP3 POP POP POP JUMP JUMPDEST PUSH1 0x80 MLOAD PUSH2 0xD42 PUSH2 0x9D PUSH1 0x0 CODECOPY PUSH1 0x0 DUP2 DUP2 PUSH1 0xB2 ADD MSTORE PUSH2 0x2B6 ADD MSTORE PUSH2 0xD42 PUSH1 0x0 RETURN INVALID PUSH1 0x80 PUSH1 0x40 MSTORE CALLVALUE DUP1 ISZERO PUSH2 0x10 JUMPI PUSH1 0x0 DUP1 REVERT JUMPDEST POP PUSH1 0x4 CALLDATASIZE LT PUSH2 0x93 JUMPI PUSH1 0x0 CALLDATALOAD PUSH1 0xE0 SHR DUP1 PUSH4 0x42966C68 GT PUSH2 0x66 JUMPI DUP1 PUSH4 0x42966C68 EQ PUSH2 0x13B JUMPI DUP1 PUSH4 0x63675B66 EQ PUSH2 0x14E JUMPI DUP1 PUSH4 0x8DA5CB5B EQ PUSH2 0x16E JUMPI DUP1 PUSH4 0xC9B5EF8E EQ PUSH2 0x181 JUMPI DUP1 PUSH4 0xECD8DC3A EQ PUSH2 0x1B4 JUMPI PUSH1 0x0 DUP1 REVERT JUMPDEST DUP1 PUSH4 0x1AFE56AA EQ PUSH2 0x98 JUMPI DUP1 PUSH4 0x2C159A1A EQ PUSH2 0xAD JUMPI DUP1 PUSH4 0x2D2CB64E EQ PUSH2 0xF1 JUMPI DUP1 PUSH4 0x30DA5F9C EQ PUSH2 0x112 JUMPI JUMPDEST PUSH1 0x0 DUP1 REVERT JUMPDEST PUSH2 0xAB PUSH2 0xA6 CALLDATASIZE PUSH1 0x4 PUSH2 0x87F JUMP JUMPDEST PUSH2 0x1C7 JUMP JUMPDEST STOP JUMPDEST PUSH2 0xD4 PUSH32 0x0 DUP2 JUMP JUMPDEST PUSH1 0x40 MLOAD PUSH1 0x1 PUSH1 0x1 PUSH1 0xA0 SHL SUB SWAP1 SWAP2 AND DUP2 MSTORE PUSH1 0x20 ADD JUMPDEST PUSH1 0x40 MLOAD DUP1 SWAP2 SUB SWAP1 RETURN JUMPDEST PUSH2 0x104 PUSH2 0xFF CALLDATASIZE PUSH1 0x4 PUSH2 0x8B4 JUMP JUMPDEST PUSH2 0x267 JUMP JUMPDEST PUSH1 0x40 MLOAD SWAP1 DUP2 MSTORE PUSH1 0x20 ADD PUSH2 0xE8 JUMP JUMPDEST PUSH2 0x104 PUSH2 0x120 CALLDATASIZE PUSH1 0x4 PUSH2 0x959 JUMP JUMPDEST PUSH1 0x1 PUSH1 0x1 PUSH1 0xA0 SHL SUB AND PUSH1 0x0 SWAP1 DUP2 MSTORE PUSH1 0x2 PUSH1 0x20 MSTORE PUSH1 0x40 SWAP1 KECCAK256 SLOAD SWAP1 JUMP JUMPDEST PUSH2 0xAB PUSH2 0x149 CALLDATASIZE PUSH1 0x4 PUSH2 0x87F JUMP JUMPDEST PUSH2 0x4B7 JUMP JUMPDEST PUSH2 0x161 PUSH2 0x15C CALLDATASIZE PUSH1 0x4 PUSH2 0x974 JUMP JUMPDEST PUSH2 0x594 JUMP JUMPDEST PUSH1 0x40 MLOAD PUSH2 0xE8 SWAP2 SWAP1 PUSH2 0x9A7 JUMP JUMPDEST PUSH1 0x0 SLOAD PUSH2 0xD4 SWAP1 PUSH1 0x1 PUSH1 0x1 PUSH1 0xA0 SHL SUB AND DUP2 JUMP JUMPDEST PUSH2 0x1A4 PUSH2 0x18F CALLDATASIZE PUSH1 0x4 PUSH2 0x959 JUMP JUMPDEST PUSH1 0x1 PUSH1 0x20 MSTORE PUSH1 0x0 SWAP1 DUP2 MSTORE PUSH1 0x40 SWAP1 KECCAK256 SLOAD PUSH1 0xFF AND DUP2 JUMP JUMPDEST PUSH1 0x40 MLOAD SWAP1 ISZERO ISZERO DUP2 MSTORE PUSH1 0x20 ADD PUSH2 0xE8 JUMP JUMPDEST PUSH2 0xAB PUSH2 0x1C2 CALLDATASIZE PUSH1 0x4 PUSH2 0xABF JUMP JUMPDEST PUSH2 0x7F5 JUMP JUMPDEST CALLER PUSH1 0x0 SWAP1 DUP2 MSTORE PUSH1 0x2 PUSH1 0x20 MSTORE PUSH1 0x40 SWAP1 KECCAK256 DUP1 SLOAD DUP3 LT PUSH2 0x1F7 JUMPI PUSH1 0x40 MLOAD PUSH4 0x779FFA57 PUSH1 0xE1 SHL DUP2 MSTORE PUSH1 0x4 ADD PUSH1 0x40 MLOAD DUP1 SWAP2 SUB SWAP1 REVERT JUMPDEST PUSH1 0x1 DUP2 DUP4 DUP2 SLOAD DUP2 LT PUSH2 0x20B JUMPI PUSH2 0x20B PUSH2 0xAF6 JUMP JUMPDEST PUSH1 0x0 SWAP2 DUP3 MSTORE PUSH1 0x20 DUP3 KECCAK256 PUSH1 0x1 PUSH1 0x2 SWAP1 SWAP3 MUL ADD ADD DUP1 SLOAD SWAP3 ISZERO ISZERO PUSH1 0x1 PUSH1 0x80 SHL MUL PUSH1 0xFF PUSH1 0x80 SHL NOT SWAP1 SWAP4 AND SWAP3 SWAP1 SWAP3 OR SWAP1 SWAP2 SSTORE PUSH1 0x40 MLOAD DUP4 SWAP2 CALLER SWAP2 PUSH32 0xB2FEB4A993F0919D4F361A12BA74F7715CB4F472DAA7AE124B0675492D079B30 SWAP2 SWAP1 LOG3 POP POP JUMP JUMPDEST CALLER PUSH1 0x0 SWAP1 DUP2 MSTORE PUSH1 0x1 PUSH1 0x20 MSTORE PUSH1 0x40 DUP2 KECCAK256 SLOAD PUSH1 0xFF AND PUSH2 0x297 JUMPI PUSH1 0x40 MLOAD PUSH4 0xC64891A5 PUSH1 0xE0 SHL DUP2 MSTORE PUSH1 0x4 ADD PUSH1 0x40 MLOAD DUP1 SWAP2 SUB SWAP1 REVERT JUMPDEST PUSH1 0x40 MLOAD PUSH4 0xC3C5A547 PUSH1 0xE0 SHL DUP2 MSTORE PUSH1 0x1 PUSH1 0x1 PUSH1 0xA0 SHL SUB DUP7 DUP2 AND PUSH1 0x4 DUP4 ADD MSTORE PUSH32 0x0 AND SWAP1 PUSH4 0xC3C5A547 SWAP1 PUSH1 0x24 ADD PUSH1 0x20 PUSH1 0x40 MLOAD DUP1 DUP4 SUB DUP2 DUP7 GAS STATICCALL ISZERO DUP1 ISZERO PUSH2 0x2FD JUMPI RETURNDATASIZE PUSH1 0x0 DUP1 RETURNDATACOPY RETURNDATASIZE PUSH1 0x0 REVERT JUMPDEST POP POP POP POP PUSH1 0x40 MLOAD RETURNDATASIZE PUSH1 0x1F NOT PUSH1 0x1F DUP3 ADD AND DUP3 ADD DUP1 PUSH1 0x40 MSTORE POP DUP2 ADD SWAP1 PUSH2 0x321 SWAP2 SWAP1 PUSH2 0xB0C JUMP JUMPDEST PUSH2 0x33E JUMPI PUSH1 0x40 MLOAD PUSH4 0x5283857B PUSH1 0xE1 SHL DUP2 MSTORE PUSH1 0x4 ADD PUSH1 0x40 MLOAD DUP1 SWAP2 SUB SWAP1 REVERT JUMPDEST POP PUSH1 0x1 PUSH1 0x1 PUSH1 0xA0 SHL SUB DUP5 AND PUSH1 0x0 SWAP1 DUP2 MSTORE PUSH1 0x2 PUSH1 0x20 SWAP1 DUP2 MSTORE PUSH1 0x40 SWAP2 DUP3 SWAP1 KECCAK256 DUP1 SLOAD DUP4 MLOAD PUSH1 0xC0 PUSH1 0x1F DUP9 ADD DUP6 SWAP1 DIV SWAP1 SWAP5 MUL DUP2 ADD DUP5 ADD SWAP1 SWAP5 MSTORE PUSH1 0xA0 DUP5 ADD DUP7 DUP2 MSTORE SWAP1 SWAP4 SWAP2 SWAP3 DUP3 SWAP2 SWAP1 DUP9 SWAP1 DUP9 SWAP1 DUP2 SWAP1 DUP6 ADD DUP4 DUP3 DUP1 DUP3 DUP5 CALLDATACOPY PUSH1 0x0 SWAP3 ADD DUP3 SWAP1 MSTORE POP SWAP4 DUP6 MSTORE POP POP POP PUSH8 0xFFFFFFFFFFFFFFFF TIMESTAMP DUP2 AND PUSH1 0x20 DUP1 DUP6 ADD SWAP2 SWAP1 SWAP2 MSTORE SWAP1 DUP8 AND PUSH1 0x40 DUP5 ADD MSTORE PUSH1 0x60 DUP4 ADD DUP3 SWAP1 MSTORE PUSH1 0x80 SWAP1 SWAP3 ADD DUP2 SWAP1 MSTORE DUP4 SLOAD PUSH1 0x1 DUP2 ADD DUP6 SSTORE SWAP4 DUP2 MSTORE KECCAK256 DUP2 MLOAD SWAP2 SWAP3 PUSH1 0x2 MUL ADD SWAP1 DUP2 SWAP1 PUSH2 0x3E9 SWAP1 DUP3 PUSH2 0xBC8 JUMP JUMPDEST POP PUSH1 0x20 DUP3 ADD MLOAD PUSH1 0x1 SWAP1 SWAP2 ADD DUP1 SLOAD PUSH1 0x40 DUP1 DUP6 ADD MLOAD PUSH1 0x60 DUP7 ADD MLOAD PUSH1 0x80 SWAP1 SWAP7 ADD MLOAD ISZERO ISZERO PUSH1 0x1 PUSH1 0x88 SHL MUL PUSH1 0xFF PUSH1 0x88 SHL NOT SWAP7 ISZERO ISZERO PUSH1 0x1 PUSH1 0x80 SHL MUL SWAP7 SWAP1 SWAP7 AND PUSH2 0xFFFF PUSH1 0x80 SHL NOT PUSH8 0xFFFFFFFFFFFFFFFF SWAP3 DUP4 AND PUSH1 0x1 PUSH1 0x40 SHL MUL PUSH16 0xFFFFFFFFFFFFFFFFFFFFFFFFFFFFFFFF NOT SWAP1 SWAP6 AND SWAP3 SWAP1 SWAP7 AND SWAP2 SWAP1 SWAP2 OR SWAP3 SWAP1 SWAP3 OR SWAP4 SWAP1 SWAP4 AND OR SWAP3 SWAP1 SWAP3 OR SWAP1 SWAP2 SSTORE MLOAD DUP2 SWAP1 PUSH1 0x1 PUSH1 0x1 PUSH1 0xA0 SHL SUB DUP8 AND SWAP1 PUSH32 0x3FA718C4F65D1F2724F782D9DB8320AFBB34D9954BEC7C394AAE5694BA51880E SWAP1 PUSH2 0x4A7 SWAP1 DUP9 SWAP1 DUP9 SWAP1 DUP9 SWAP1 PUSH2 0xC87 JUMP JUMPDEST PUSH1 0x40 MLOAD DUP1 SWAP2 SUB SWAP1 LOG3 SWAP5 SWAP4 POP POP POP POP JUMP JUMPDEST CALLER PUSH1 0x0 SWAP1 DUP2 MSTORE PUSH1 0x2 PUSH1 0x20 MSTORE PUSH1 0x40 SWAP1 KECCAK256 DUP1 SLOAD DUP3 LT PUSH2 0x4E7 JUMPI PUSH1 0x40 MLOAD PUSH4 0x779FFA57 PUSH1 0xE1 SHL DUP2 MSTORE PUSH1 0x4 ADD PUSH1 0x40 MLOAD DUP1 SWAP2 SUB SWAP1 REVERT JUMPDEST PUSH1 0x1 DUP2 DUP4 DUP2 SLOAD DUP2 LT PUSH2 0x4FB JUMPI PUSH2 0x4FB PUSH2 0xAF6 JUMP JUMPDEST SWAP1 PUSH1 0x0 MSTORE PUSH1 0x20 PUSH1 0x0 KECCAK256 SWAP1 PUSH1 0x2 MUL ADD PUSH1 0x1 ADD PUSH1 0x11 PUSH2 0x100 EXP DUP2 SLOAD DUP2 PUSH1 0xFF MUL NOT AND SWAP1 DUP4 ISZERO ISZERO MUL OR SWAP1 SSTORE POP PUSH1 0x40 MLOAD DUP1 PUSH1 0x20 ADD PUSH1 0x40 MSTORE DUP1 PUSH1 0x0 DUP2 MSTORE POP DUP2 DUP4 DUP2 SLOAD DUP2 LT PUSH2 0x545 JUMPI PUSH2 0x545 PUSH2 0xAF6 JUMP JUMPDEST SWAP1 PUSH1 0x0 MSTORE PUSH1 0x20 PUSH1 0x0 KECCAK256 SWAP1 PUSH1 0x2 MUL ADD PUSH1 0x0 ADD SWAP1 DUP2 PUSH2 0x562 SWAP2 SWAP1 PUSH2 0xBC8 JUMP JUMPDEST POP PUSH1 0x40 MLOAD DUP3 SWAP1 CALLER SWAP1 PUSH32 0x743577539E06408AD753CBB7C7F0E75CD888CBE7745C8043585476A9D48259E1 SWAP1 PUSH1 0x0 SWAP1 LOG3 POP POP JUMP JUMPDEST PUSH1 0x1 PUSH1 0x1 PUSH1 0xA0 SHL SUB DUP4 AND PUSH1 0x0 SWAP1 DUP2 MSTORE PUSH1 0x2 PUSH1 0x20 MSTORE PUSH1 0x40 SWAP1 KECCAK256 DUP1 SLOAD PUSH1 0x60 SWAP2 SWAP1 DUP5 LT PUSH2 0x613 JUMPI PUSH1 0x40 DUP1 MLOAD PUSH1 0x0 DUP1 DUP3 MSTORE PUSH1 0x20 DUP3 ADD SWAP1 SWAP3 MSTORE SWAP1 PUSH2 0x60A JUMP JUMPDEST PUSH1 0x40 DUP1 MLOAD PUSH1 0xA0 DUP2 ADD DUP3 MSTORE PUSH1 0x60 DUP1 DUP3 MSTORE PUSH1 0x0 PUSH1 0x20 DUP1 DUP5 ADD DUP3 SWAP1 MSTORE SWAP4 DUP4 ADD DUP2 SWAP1 MSTORE SWAP1 DUP3 ADD DUP2 SWAP1 MSTORE PUSH1 0x80 DUP3 ADD MSTORE DUP3 MSTORE PUSH1 0x0 NOT SWAP1 SWAP3 ADD SWAP2 ADD DUP2 PUSH2 0x5CE JUMPI SWAP1 POP JUMPDEST POP SWAP2 POP POP PUSH2 0x7EE JUMP JUMPDEST PUSH1 0x0 PUSH2 0x61F DUP5 DUP7 PUSH2 0xCE0 JUMP JUMPDEST DUP3 SLOAD SWAP1 SWAP2 POP DUP2 GT ISZERO PUSH2 0x62F JUMPI POP DUP1 SLOAD JUMPDEST PUSH2 0x639 DUP6 DUP3 PUSH2 0xCF9 JUMP JUMPDEST PUSH8 0xFFFFFFFFFFFFFFFF DUP2 GT ISZERO PUSH2 0x651 JUMPI PUSH2 0x651 PUSH2 0xB29 JUMP JUMPDEST PUSH1 0x40 MLOAD SWAP1 DUP1 DUP3 MSTORE DUP1 PUSH1 0x20 MUL PUSH1 0x20 ADD DUP3 ADD PUSH1 0x40 MSTORE DUP1 ISZERO PUSH2 0x6AB JUMPI DUP2 PUSH1 0x20 ADD JUMPDEST PUSH1 0x40 DUP1 MLOAD PUSH1 0xA0 DUP2 ADD DUP3 MSTORE PUSH1 0x60 DUP1 DUP3 MSTORE PUSH1 0x0 PUSH1 0x20 DUP1 DUP5 ADD DUP3 SWAP1 MSTORE SWAP4 DUP4 ADD DUP2 SWAP1 MSTORE SWAP1 DUP3 ADD DUP2 SWAP1 MSTORE PUSH1 0x80 DUP3 ADD MSTORE DUP3 MSTORE PUSH1 0x0 NOT SWAP1 SWAP3 ADD SWAP2 ADD DUP2 PUSH2 0x66F JUMPI SWAP1 POP JUMPDEST POP SWAP3 POP DUP5 JUMPDEST DUP2 DUP2 LT ISZERO PUSH2 0x7EA JUMPI DUP3 DUP2 DUP2 SLOAD DUP2 LT PUSH2 0x6CA JUMPI PUSH2 0x6CA PUSH2 0xAF6 JUMP JUMPDEST SWAP1 PUSH1 0x0 MSTORE PUSH1 0x20 PUSH1 0x0 KECCAK256 SWAP1 PUSH1 0x2 MUL ADD PUSH1 0x40 MLOAD DUP1 PUSH1 0xA0 ADD PUSH1 0x40 MSTORE SWAP1 DUP2 PUSH1 0x0 DUP3 ADD DUP1 SLOAD PUSH2 0x6F3 SWAP1 PUSH2 0xB3F JUMP JUMPDEST DUP1 PUSH1 0x1F ADD PUSH1 0x20 DUP1 SWAP2 DIV MUL PUSH1 0x20 ADD PUSH1 0x40 MLOAD SWAP1 DUP2 ADD PUSH1 0x40 MSTORE DUP1 SWAP3 SWAP2 SWAP1 DUP2 DUP2 MSTORE PUSH1 0x20 ADD DUP3 DUP1 SLOAD PUSH2 0x71F SWAP1 PUSH2 0xB3F JUMP JUMPDEST DUP1 ISZERO PUSH2 0x76C JUMPI DUP1 PUSH1 0x1F LT PUSH2 0x741 JUMPI PUSH2 0x100 DUP1 DUP4 SLOAD DIV MUL DUP4 MSTORE SWAP2 PUSH1 0x20 ADD SWAP2 PUSH2 0x76C JUMP JUMPDEST DUP3 ADD SWAP2 SWAP1 PUSH1 0x0 MSTORE PUSH1 0x20 PUSH1 0x0 KECCAK256 SWAP1 JUMPDEST DUP2 SLOAD DUP2 MSTORE SWAP1 PUSH1 0x1 ADD SWAP1 PUSH1 0x20 ADD DUP1 DUP4 GT PUSH2 0x74F JUMPI DUP3 SWAP1 SUB PUSH1 0x1F AND DUP3 ADD SWAP2 JUMPDEST POP POP POP SWAP2 DUP4 MSTORE POP POP PUSH1 0x1 SWAP2 SWAP1 SWAP2 ADD SLOAD PUSH8 0xFFFFFFFFFFFFFFFF DUP1 DUP3 AND PUSH1 0x20 DUP5 ADD MSTORE PUSH1 0x1 PUSH1 0x40 SHL DUP3 DIV AND PUSH1 0x40 DUP4 ADD MSTORE PUSH1 0xFF PUSH1 0x1 PUSH1 0x80 SHL DUP3 DIV DUP2 AND ISZERO ISZERO PUSH1 0x60 DUP5 ADD MSTORE PUSH1 0x1 PUSH1 0x88 SHL SWAP1 SWAP2 DIV AND ISZERO ISZERO PUSH1 0x80 SWAP1 SWAP2 ADD MSTORE DUP5 PUSH2 0x7C7 DUP9 DUP5 PUSH2 0xCF9 JUMP JUMPDEST DUP2 MLOAD DUP2 LT PUSH2 0x7D7 JUMPI PUSH2 0x7D7 PUSH2 0xAF6 JUMP JUMPDEST PUSH1 0x20 SWAP1 DUP2 MUL SWAP2 SWAP1 SWAP2 ADD ADD MSTORE PUSH1 0x1 ADD PUSH2 0x6B0 JUMP JUMPDEST POP POP POP JUMPDEST SWAP4 SWAP3 POP POP POP JUMP JUMPDEST PUSH1 0x0 SLOAD PUSH1 0x1 PUSH1 0x1 PUSH1 0xA0 SHL SUB AND CALLER EQ PUSH2 0x820 JUMPI PUSH1 0x40 MLOAD PUSH4 0x30CD7471 PUSH1 0xE0 SHL DUP2 MSTORE PUSH1 0x4 ADD PUSH1 0x40 MLOAD DUP1 SWAP2 SUB SWAP1 REVERT JUMPDEST PUSH1 0x1 PUSH1 0x1 PUSH1 0xA0 SHL SUB DUP3 AND PUSH1 0x0 DUP2 DUP2 MSTORE PUSH1 0x1 PUSH1 0x20 SWAP1 DUP2 MSTORE PUSH1 0x40 SWAP2 DUP3 SWAP1 KECCAK256 DUP1 SLOAD PUSH1 0xFF NOT AND DUP6 ISZERO ISZERO SWAP1 DUP2 OR SWAP1 SWAP2 SSTORE SWAP2 MLOAD SWAP2 DUP3 MSTORE PUSH32 0xEE42947BC760229EEFF964017AC68EDDB00BA98B0DEFCD90A1BC85A5AFCEB057 SWAP2 ADD PUSH1 0x40 MLOAD DUP1 SWAP2 SUB SWAP1 LOG2 POP POP JUMP JUMPDEST PUSH1 0x0 PUSH1 0x20 DUP3 DUP5 SUB SLT ISZERO PUSH2 0x891 JUMPI PUSH1 0x0 DUP1 REVERT JUMPDEST POP CALLDATALOAD SWAP2 SWAP1 POP JUMP JUMPDEST DUP1 CALLDATALOAD PUSH1 0x1 PUSH1 0x1 PUSH1 0xA0 SHL SUB DUP2 AND DUP2 EQ PUSH2 0x8AF JUMPI PUSH1 0x0 DUP1 REVERT JUMPDEST SWAP2 SWAP1 POP JUMP JUMPDEST PUSH1 0x0 DUP1 PUSH1 0x0 DUP1 PUSH1 0x60 DUP6 DUP8 SUB SLT ISZERO PUSH2 0x8CA JUMPI PUSH1 0x0 DUP1 REVERT JUMPDEST PUSH2 0x8D3 DUP6 PUSH2 0x898 JUMP JUMPDEST SWAP4 POP PUSH1 0x20 DUP6 ADD CALLDATALOAD PUSH8 0xFFFFFFFFFFFFFFFF DUP2 GT ISZERO PUSH2 0x8EF JUMPI PUSH1 0x0 DUP1 REVERT JUMPDEST DUP6 ADD PUSH1 0x1F DUP2 ADD DUP8 SGT PUSH2 0x900 JUMPI PUSH1 0x0 DUP1 REVERT JUMPDEST DUP1 CALLDATALOAD PUSH8 0xFFFFFFFFFFFFFFFF DUP2 GT ISZERO PUSH2 0x917 JUMPI PUSH1 0x0 DUP1 REVERT JUMPDEST DUP8 PUSH1 0x20 DUP3 DUP5 ADD ADD GT ISZERO PUSH2 0x929 JUMPI PUSH1 0x0 DUP1 REVERT JUMPDEST PUSH1 0x20 SWAP2 SWAP1 SWAP2 ADD SWAP4 POP SWAP2 POP PUSH1 0x40 DUP6 ADD CALLDATALOAD PUSH8 0xFFFFFFFFFFFFFFFF DUP2 AND DUP2 EQ PUSH2 0x94E JUMPI PUSH1 0x0 DUP1 REVERT JUMPDEST SWAP4 SWAP7 SWAP3 SWAP6 POP SWAP1 SWAP4 POP POP JUMP JUMPDEST PUSH1 0x0 PUSH1 0x20 DUP3 DUP5 SUB SLT ISZERO PUSH2 0x96B JUMPI PUSH1 0x0 DUP1 REVERT JUMPDEST PUSH2 0x7EE DUP3 PUSH2 0x898 JUMP JUMPDEST PUSH1 0x0 DUP1 PUSH1 0x0 PUSH1 0x60 DUP5 DUP7 SUB SLT ISZERO PUSH2 0x989 JUMPI PUSH1 0x0 DUP1 REVERT JUMPDEST PUSH2 0x992 DUP5 PUSH2 0x898 JUMP JUMPDEST SWAP6 PUSH1 0x20 DUP6 ADD CALLDATALOAD SWAP6 POP PUSH1 0x40 SWAP1 SWAP5 ADD CALLDATALOAD SWAP4 SWAP3 POP POP POP JUMP JUMPDEST PUSH1 0x0 PUSH1 0x20 DUP3 ADD PUSH1 0x20 DUP4 MSTORE DUP1 DUP5 MLOAD DUP1 DUP4 MSTORE PUSH1 0x40 DUP6 ADD SWAP2 POP PUSH1 0x40 DUP2 PUSH1 0x5 SHL DUP7 ADD ADD SWAP3 POP PUSH1 0x20 DUP7 ADD PUSH1 0x0 JUMPDEST DUP3 DUP2 LT ISZERO PUSH2 0xAA2 JUMPI PUSH1 0x3F NOT DUP8 DUP7 SUB ADD DUP5 MSTORE DUP2 MLOAD DUP1 MLOAD PUSH1 0xA0 DUP8 MSTORE DUP1 MLOAD DUP1 PUSH1 0xA0 DUP10 ADD MSTORE PUSH1 0x0 JUMPDEST DUP2 DUP2 LT ISZERO PUSH2 0xA10 JUMPI PUSH1 0x20 DUP2 DUP5 ADD DUP2 ADD MLOAD PUSH1 0xC0 DUP12 DUP5 ADD ADD MSTORE ADD PUSH2 0x9F3 JUMP JUMPDEST POP PUSH1 0x0 PUSH1 0xC0 DUP3 DUP11 ADD ADD MSTORE PUSH1 0x20 DUP4 ADD MLOAD SWAP2 POP PUSH2 0xA37 PUSH1 0x20 DUP10 ADD DUP4 PUSH8 0xFFFFFFFFFFFFFFFF AND SWAP1 MSTORE JUMP JUMPDEST PUSH1 0x40 DUP4 ADD MLOAD SWAP2 POP PUSH2 0xA54 PUSH1 0x40 DUP10 ADD DUP4 PUSH8 0xFFFFFFFFFFFFFFFF AND SWAP1 MSTORE JUMP JUMPDEST PUSH1 0x60 DUP4 ADD MLOAD SWAP2 POP PUSH2 0xA69 PUSH1 0x60 DUP10 ADD DUP4 ISZERO ISZERO SWAP1 MSTORE JUMP JUMPDEST PUSH1 0x80 DUP4 ADD MLOAD SWAP3 POP PUSH2 0xA7E PUSH1 0x80 DUP10 ADD DUP5 ISZERO ISZERO SWAP1 MSTORE JUMP JUMPDEST PUSH1 0x1F ADD PUSH1 0x1F NOT AND SWAP7 SWAP1 SWAP7 ADD PUSH1 0xC0 ADD SWAP6 POP POP PUSH1 0x20 SWAP4 DUP5 ADD SWAP4 SWAP2 SWAP1 SWAP2 ADD SWAP1 PUSH1 0x1 ADD PUSH2 0x9CF JUMP JUMPDEST POP SWAP3 SWAP7 SWAP6 POP POP POP POP POP POP JUMP JUMPDEST DUP1 ISZERO ISZERO DUP2 EQ PUSH2 0xABC JUMPI PUSH1 0x0 DUP1 REVERT JUMPDEST POP JUMP JUMPDEST PUSH1 0x0 DUP1 PUSH1 0x40 DUP4 DUP6 SUB SLT ISZERO PUSH2 0xAD2 JUMPI PUSH1 0x0 DUP1 REVERT JUMPDEST PUSH2 0xADB DUP4 PUSH2 0x898 JUMP JUMPDEST SWAP2 POP PUSH1 0x20 DUP4 ADD CALLDATALOAD PUSH2 0xAEB DUP2 PUSH2 0xAAE JUMP JUMPDEST DUP1 SWAP2 POP POP SWAP3 POP SWAP3 SWAP1 POP JUMP JUMPDEST PUSH4 0x4E487B71 PUSH1 0xE0 SHL PUSH1 0x0 MSTORE PUSH1 0x32 PUSH1 0x4 MSTORE PUSH1 0x24 PUSH1 0x0 REVERT JUMPDEST PUSH1 0x0 PUSH1 0x20 DUP3 DUP5 SUB SLT ISZERO PUSH2 0xB1E JUMPI PUSH1 0x0 DUP1 REVERT JUMPDEST DUP2 MLOAD PUSH2 0x7EE DUP2 PUSH2 0xAAE JUMP JUMPDEST PUSH4 0x4E487B71 PUSH1 0xE0 SHL PUSH1 0x0 MSTORE PUSH1 0x41 PUSH1 0x4 MSTORE PUSH1 0x24 PUSH1 0x0 REVERT JUMPDEST PUSH1 0x1 DUP2 DUP2 SHR SWAP1 DUP3 AND DUP1 PUSH2 0xB53 JUMPI PUSH1 0x7F DUP3 AND SWAP2 POP JUMPDEST PUSH1 0x20 DUP3 LT DUP2 SUB PUSH2 0xB73 JUMPI PUSH4 0x4E487B71 PUSH1 0xE0 SHL PUSH1 0x0 MSTORE PUSH1 0x22 PUSH1 0x4 MSTORE PUSH1 0x24 PUSH1 0x0 REVERT JUMPDEST POP SWAP2 SWAP1 POP JUMP JUMPDEST PUSH1 0x1F DUP3 GT ISZERO PUSH2 0xBC3 JUMPI DUP1 PUSH1 0x0 MSTORE PUSH1 0x20 PUSH1 0x0 KECCAK256 PUSH1 0x1F DUP5 ADD PUSH1 0x5 SHR DUP2 ADD PUSH1 0x20 DUP6 LT ISZERO PUSH2 0xBA0 JUMPI POP DUP1 JUMPDEST PUSH1 0x1F DUP5 ADD PUSH1 0x5 SHR DUP3 ADD SWAP2 POP JUMPDEST DUP2 DUP2 LT ISZERO PUSH2 0xBC0 JUMPI PUSH1 0x0 DUP2 SSTORE PUSH1 0x1 ADD PUSH2 0xBAC JUMP JUMPDEST POP POP JUMPDEST POP POP POP JUMP JUMPDEST DUP2 MLOAD PUSH8 0xFFFFFFFFFFFFFFFF DUP2 GT ISZERO PUSH2 0xBE2 JUMPI PUSH2 0xBE2 PUSH2 0xB29 JUMP JUMPDEST PUSH2 0xBF6 DUP2 PUSH2 0xBF0 DUP5 SLOAD PUSH2 0xB3F JUMP JUMPDEST DUP5 PUSH2 0xB79 JUMP JUMPDEST PUSH1 0x20 PUSH1 0x1F DUP3 GT PUSH1 0x1 DUP2 EQ PUSH2 0xC2A JUMPI PUSH1 0x0 DUP4 ISZERO PUSH2 0xC12 JUMPI POP DUP5 DUP3 ADD MLOAD JUMPDEST PUSH1 0x0 NOT PUSH1 0x3 DUP6 SWAP1 SHL SHR NOT AND PUSH1 0x1 DUP5 SWAP1 SHL OR DUP5 SSTORE PUSH2 0xBC0 JUMP JUMPDEST PUSH1 0x0 DUP5 DUP2 MSTORE PUSH1 0x20 DUP2 KECCAK256 PUSH1 0x1F NOT DUP6 AND SWAP2 JUMPDEST DUP3 DUP2 LT ISZERO PUSH2 0xC5A JUMPI DUP8 DUP6 ADD MLOAD DUP3 SSTORE PUSH1 0x20 SWAP5 DUP6 ADD SWAP5 PUSH1 0x1 SWAP1 SWAP3 ADD SWAP2 ADD PUSH2 0xC3A JUMP JUMPDEST POP DUP5 DUP3 LT ISZERO PUSH2 0xC78 JUMPI DUP7 DUP5 ADD MLOAD PUSH1 0x0 NOT PUSH1 0x3 DUP8 SWAP1 SHL PUSH1 0xF8 AND SHR NOT AND DUP2 SSTORE JUMPDEST POP POP POP POP PUSH1 0x1 SWAP1 DUP2 SHL ADD SWAP1 SSTORE POP JUMP JUMPDEST PUSH1 0x40 DUP2 MSTORE DUP3 PUSH1 0x40 DUP3 ADD MSTORE DUP3 DUP5 PUSH1 0x60 DUP4 ADD CALLDATACOPY PUSH1 0x0 PUSH1 0x60 DUP5 DUP4 ADD ADD MSTORE PUSH1 0x0 PUSH1 0x60 PUSH1 0x1F NOT PUSH1 0x1F DUP7 ADD AND DUP4 ADD ADD SWAP1 POP PUSH8 0xFFFFFFFFFFFFFFFF DUP4 AND PUSH1 0x20 DUP4 ADD MSTORE SWAP5 SWAP4 POP POP POP POP JUMP JUMPDEST PUSH4 0x4E487B71 PUSH1 0xE0 SHL PUSH1 0x0 MSTORE PUSH1 0x11 PUSH1 0x4 MSTORE PUSH1 0x24 PUSH1 0x0 REVERT JUMPDEST DUP1 DUP3 ADD DUP1 DUP3 GT ISZERO PUSH2 0xCF3 JUMPI PUSH2 0xCF3 PUSH2 0xCCA JUMP JUMPDEST SWAP3 SWAP2 POP POP JUMP JUMPDEST DUP2 DUP2 SUB DUP2 DUP2 GT ISZERO PUSH2 0xCF3 JUMPI PUSH2 0xCF3 PUSH2 0xCCA JUMP INVALID LOG2 PUSH5 0x6970667358 0x22 SLT KECCAK256 INVALID PUSH27 0xF224353E1928B7A8E26A1AB88F17B5869E66F0C67B1CCEF2D356AB STATICCALL 0xB2 0xC0 PUSH5 0x736F6C6343 STOP ADDMOD BYTE STOP CALLER "},"methodIdentifiers":{"burn(uint256)":"42966c68","deliver(address,string,uint64)":"2d2cb64e","getInbox(address,uint256,uint256)":"63675b66","identity()":"2c159a1a","inboxCount(address)":"30da5f9c","markRead(uint256)":"1afe56aa","owner()":"8da5cb5b","relayer(address)":"c9b5ef8e","setRelayer(address,bool)":"ecd8dc3a"}}}}}