{
  "_format": "hh-sol-artifact-1",
  "contractName": "AnonymousMail",
  "sourceName": "contracts/AnonymousMail.sol",
  "abi": [
    {
      "inputs": [
        {
          "internalType": "address",
          "name": "identityRegistry",
          "type": "address"
        }
      ],
      "stateMutability": "nonpayable",
      "type": "constructor"
    },
    {
      "inputs": [],
      "name": "BadIndex",
      "type": "error"
    },
    {
      "inputs": [],
      "name": "NotOwner",
      "type": "error"
    },
    {
      "inputs": [],
      "name": "NotRelayer",
      "type": "error"
    },
    {
      "inputs": [],
      "name": "RecipientNotRegistered",
      "type": "error"
    },
    {
      "anonymous": false,
      "inputs": [
        {
          "indexed": true,
          "internalType": "address",
          "name": "to",
          "type": "address"
        },
        {
          "indexed": true,
          "internalType": "uint256",
          "name": "index",
          "type": "uint256"
        }
      ],
      "name": "MailBurned",
      "type": "event"
    },
    {
      "anonymous": false,
      "inputs": [
        {
          "indexed": true,
          "internalType": "address",
          "name": "to",
          "type": "address"
        },
        {
          "indexed": true,
          "internalType": "uint256",
          "name": "index",
          "type": "uint256"
        },
        {
          "indexed": false,
          "internalType": "string",
          "name": "cid",
          "type": "string"
        },
        {
          "indexed": false,
          "internalType": "uint64",
          "name": "expiresAt",
          "type": "uint64"
        }
      ],
      "name": "MailDelivered",
      "type": "event"
    },
    {
      "anonymous": false,
      "inputs": [
        {
          "indexed": true,
          "internalType": "address",
          "name": "to",
          "type": "address"
        },
        {
          "indexed": true,
          "internalType": "uint256",
          "name": "index",
          "type": "uint256"
        }
      ],
      "name": "MailRead",
      "type": "event"
    },
    {
      "anonymous": false,
      "inputs": [
        {
          "indexed": true,
          "internalType": "address",
          "name": "relay",
          "type": "address"
        },
        {
          "indexed": false,
          "internalType": "bool",
          "name": "allowed",
          "type": "bool"
        }
      ],
      "name": "RelayerSet",
      "type": "event"
    },
    {
      "inputs": [
        {
          "internalType": "uint256",
          "name": "index",
          "type": "uint256"
        }
      ],
      "name": "burn",
      "outputs": [],
      "stateMutability": "nonpayable",
      "type": "function"
    },
    {
      "inputs": [
        {
          "internalType": "address",
          "name": "to",
          "type": "address"
        },
        {
          "internalType": "string",
          "name": "cid",
          "type": "string"
        },
        {
          "internalType": "uint64",
          "name": "expiresAt",
          "type": "uint64"
        }
      ],
      "name": "deliver",
      "outputs": [
        {
          "internalType": "uint256",
          "name": "index",
          "type": "uint256"
        }
      ],
      "stateMutability": "nonpayable",
      "type": "function"
    },
    {
      "inputs": [
        {
          "internalType": "address",
          "name": "account",
          "type": "address"
        },
        {
          "internalType": "uint256",
          "name": "offset",
          "type": "uint256"
        },
        {
          "internalType": "uint256",
          "name": "limit",
          "type": "uint256"
        }
      ],
      "name": "getInbox",
      "outputs": [
        {
          "components": [
            {
              "internalType": "string",
              "name": "cid",
              "type": "string"
            },
            {
              "internalType": "uint64",
              "name": "deliveredAt",
              "type": "uint64"
            },
            {
              "internalType": "uint64",
              "name": "expiresAt",
              "type": "uint64"
            },
            {
              "internalType": "bool",
              "name": "read",
              "type": "bool"
            },
            {
              "internalType": "bool",
              "name": "burned",
              "type": "bool"
            }
          ],
          "internalType": "struct AnonymousMail.Mail[]",
          "name": "page",
          "type": "tuple[]"
        }
      ],
      "stateMutability": "view",
      "type": "function"
    },
    {
      "inputs": [],
      "name": "identity",
      "outputs": [
        {
          "internalType": "contract IIdentityRegistry",
          "name": "",
          "type": "address"
        }
      ],
      "stateMutability": "view",
      "type": "function"
    },
    {
      "inputs": [
        {
          "internalType": "address",
          "name": "account",
          "type": "address"
        }
      ],
      "name": "inboxCount",
      "outputs": [
        {
          "internalType": "uint256",
          "name": "",
          "type": "uint256"
        }
      ],
      "stateMutability": "view",
      "type": "function"
    },
    {
      "inputs": [
        {
          "internalType": "uint256",
          "name": "index",
          "type": "uint256"
        }
      ],
      "name": "markRead",
      "outputs": [],
      "stateMutability": "nonpayable",
      "type": "function"
    },
    {
      "inputs": [],
      "name": "owner",
      "outputs": [
        {
          "internalType": "address",
          "name": "",
          "type": "address"
        }
      ],
      "stateMutability": "view",
      "type": "function"
    },
    {
      "inputs": [
        {
          "internalType": "address",
          "name": "",
          "type": "address"
        }
      ],
      "name": "relayer",
      "outputs": [
        {
          "internalType": "bool",
          "name": "",
          "type": "bool"
        }
      ],
      "stateMutability": "view",
      "type": "function"
    },
    {
      "inputs": [
        {
          "internalType": "address",
          "name": "relay",
          "type": "address"
        },
        {
          "internalType": "bool",
          "name": "allowed",
          "type": "bool"
        }
      ],
      "name": "setRelayer",
      "outputs": [],
      "stateMutability": "nonpayable",
      "type": "function"
    }
  ],
  "bytecode": "0x60a0604052348015600f57600080fd5b50604051610ddf380380610ddf833981016040819052602c91604e565b600080546001600160a01b031916331790556001600160a01b0316608052607c565b600060208284031215605f57600080fd5b81516001600160a01b0381168114607557600080fd5b9392505050565b608051610d4261009d6000396000818160b201526102b60152610d426000f3fe608060405234801561001057600080fd5b50600436106100935760003560e01c806342966c681161006657806342966c681461013b57806363675b661461014e5780638da5cb5b1461016e578063c9b5ef8e14610181578063ecd8dc3a146101b457600080fd5b80631afe56aa146100985780632c159a1a146100ad5780632d2cb64e146100f157806330da5f9c14610112575b600080fd5b6100ab6100a636600461087f565b6101c7565b005b6100d47f000000000000000000000000000000000000000000000000000000000000000081565b6040516001600160a01b0390911681526020015b60405180910390f35b6101046100ff3660046108b4565b610267565b6040519081526020016100e8565b610104610120366004610959565b6001600160a01b031660009081526002602052604090205490565b6100ab61014936600461087f565b6104b7565b61016161015c366004610974565b610594565b6040516100e891906109a7565b6000546100d4906001600160a01b031681565b6101a461018f366004610959565b60016020526000908152604090205460ff1681565b60405190151581526020016100e8565b6100ab6101c2366004610abf565b6107f5565b336000908152600260205260409020805482106101f75760405163779ffa5760e11b815260040160405180910390fd5b600181838154811061020b5761020b610af6565b6000918252602082206001600290920201018054921515600160801b0260ff60801b1990931692909217909155604051839133917fb2feb4a993f0919d4f361a12ba74f7715cb4f472daa7ae124b0675492d079b309190a35050565b3360009081526001602052604081205460ff166102975760405163c64891a560e01b815260040160405180910390fd5b60405163c3c5a54760e01b81526001600160a01b0386811660048301527f0000000000000000000000000000000000000000000000000000000000000000169063c3c5a54790602401602060405180830381865afa1580156102fd573d6000803e3d6000fd5b505050506040513d601f19601f820116820180604052508101906103219190610b0c565b61033e57604051635283857b60e11b815260040160405180910390fd5b506001600160a01b0384166000908152600260209081526040918290208054835160c0601f88018590049094028101840190945260a08401868152909391928291908890889081908501838280828437600092018290525093855250505067ffffffffffffffff428116602080850191909152908716604084015260608301829052608090920181905283546001810185559381522081519192600202019081906103e99082610bc8565b5060208201516001909101805460408085015160608601516080909601511515600160881b0260ff60881b19961515600160801b029690961661ffff60801b1967ffffffffffffffff928316600160401b026fffffffffffffffffffffffffffffffff199095169290961691909117929092179390931617929092179091555181906001600160a01b038716907f3fa718c4f65d1f2724f782d9db8320afbb34d9954bec7c394aae5694ba51880e906104a790889088908890610c87565b60405180910390a3949350505050565b336000908152600260205260409020805482106104e75760405163779ffa5760e11b815260040160405180910390fd5b60018183815481106104fb576104fb610af6565b906000526020600020906002020160010160116101000a81548160ff0219169083151502179055506040518060200160405280600081525081838154811061054557610545610af6565b906000526020600020906002020160000190816105629190610bc8565b50604051829033907f743577539e06408ad753cbb7c7f0e75cd888cbe7745c8043585476a9d48259e190600090a35050565b6001600160a01b0383166000908152600260205260409020805460609190841061061357604080516000808252602082019092529061060a565b6040805160a081018252606080825260006020808401829052938301819052908201819052608082015282526000199092019101816105ce5790505b509150506107ee565b600061061f8486610ce0565b825490915081111561062f575080545b6106398582610cf9565b67ffffffffffffffff81111561065157610651610b29565b6040519080825280602002602001820160405280156106ab57816020015b6040805160a0810182526060808252600060208084018290529383018190529082018190526080820152825260001990920191018161066f5790505b509250845b818110156107ea578281815481106106ca576106ca610af6565b90600052602060002090600202016040518060a00160405290816000820180546106f390610b3f565b80601f016020809104026020016040519081016040528092919081815260200182805461071f90610b3f565b801561076c5780601f106107415761010080835404028352916020019161076c565b820191906000526020600020905b81548152906001019060200180831161074f57829003601f168201915b50505091835250506001919091015467ffffffffffffffff8082166020840152600160401b820416604083015260ff600160801b8204811615156060840152600160881b909104161515608090910152846107c78884610cf9565b815181106107d7576107d7610af6565b60209081029190910101526001016106b0565b5050505b9392505050565b6000546001600160a01b03163314610820576040516330cd747160e01b815260040160405180910390fd5b6001600160a01b038216600081815260016020908152604091829020805460ff191685151590811790915591519182527fee42947bc760229eeff964017ac68eddb00ba98b0defcd90a1bc85a5afceb057910160405180910390a25050565b60006020828403121561089157600080fd5b5035919050565b80356001600160a01b03811681146108af57600080fd5b919050565b600080600080606085870312156108ca57600080fd5b6108d385610898565b9350602085013567ffffffffffffffff8111156108ef57600080fd5b8501601f8101871361090057600080fd5b803567ffffffffffffffff81111561091757600080fd5b87602082840101111561092957600080fd5b60209190910193509150604085013567ffffffffffffffff8116811461094e57600080fd5b939692955090935050565b60006020828403121561096b57600080fd5b6107ee82610898565b60008060006060848603121561098957600080fd5b61099284610898565b95602085013595506040909401359392505050565b6000602082016020835280845180835260408501915060408160051b86010192506020860160005b82811015610aa257603f198786030184528151805160a0875280518060a089015260005b81811015610a1057602081840181015160c08b84010152016109f3565b50600060c0828a01015260208301519150610a37602089018367ffffffffffffffff169052565b60408301519150610a54604089018367ffffffffffffffff169052565b60608301519150610a69606089018315159052565b60808301519250610a7e608089018415159052565b601f01601f19169690960160c00195505060209384019391909101906001016109cf565b50929695505050505050565b8015158114610abc57600080fd5b50565b60008060408385031215610ad257600080fd5b610adb83610898565b91506020830135610aeb81610aae565b809150509250929050565b634e487b7160e01b600052603260045260246000fd5b600060208284031215610b1e57600080fd5b81516107ee81610aae565b634e487b7160e01b600052604160045260246000fd5b600181811c90821680610b5357607f821691505b602082108103610b7357634e487b7160e01b600052602260045260246000fd5b50919050565b601f821115610bc357806000526020600020601f840160051c81016020851015610ba05750805b601f840160051c820191505b81811015610bc05760008155600101610bac565b50505b505050565b815167ffffffffffffffff811115610be257610be2610b29565b610bf681610bf08454610b3f565b84610b79565b6020601f821160018114610c2a5760008315610c125750848201515b600019600385901b1c1916600184901b178455610bc0565b600084815260208120601f198516915b82811015610c5a5787850151825560209485019460019092019101610c3a565b5084821015610c785786840151600019600387901b60f8161c191681555b50505050600190811b01905550565b604081528260408201528284606083013760006060848301015260006060601f19601f860116830101905067ffffffffffffffff83166020830152949350505050565b634e487b7160e01b600052601160045260246000fd5b80820180821115610cf357610cf3610cca565b92915050565b81810381811115610cf357610cf3610cca56fea2646970667358221220fe7af224353e1928b7a8e26a1ab88f17b5869e66f0c67b1ccef2d356abfab2c064736f6c634300081a0033",
  "linkReferences": {},
  "deployedLinkReferences": {}
}